:020000040800F2
:1000000000000220E53B0008CD390008D339000884
:10001000D9390008DF390008E53900080000000080
:10002000000000000000000000000000EB390008A4
:10003000F939000800000000073A0008153A0008E6
:10004000353C0008353C0008353C0008353C0008CC
:10005000353C0008353C0008353C0008353C0008BC
:10006000353C0008353C0008353C0008353C0008AC
:10007000353C0008353C0008353C0008353C00089C
:10008000353C0008353C0008353C00080000000005
:10009000000000000000000000000000353C0008E7
:1000A000353C0008353C0008353C0008353C00086C
:1000B000353C0008353C0008353C0008353C00085C
:1000C000353C0008353C0008353C0008353C00084C
:1000D000353C0008353C0008353C000800000000B5
:1000E000353C0008353C0008353C000800000000A5
:1000F000000000000000000000000000353C000887
:1001000000000000353C0008353C0008353C000884
:1001100000000000000000000000000000000000DF
:10012000353C0008353C0008353C0008353C0008EB
:10013000353C000800000000000000000000000046
:10014000000000000000000000000000213A00084C
:10015000353C0008353C0008353C0008353C0008BB
:10016000353C0008353C000800000000000000009D
:10017000000000000000000000000000000000007F
:1001800000000000353C00080000000000000000F6
:08019000353C0008353C000875
:1001A00010B5054C237833B9044B13B10448AFF3B1
:1001B00000800123237010BDCC020020000000004D
:1001C000A8F7000808B5034B1BB103490348AFF378
:1001D000008008BD00000000D0020020A8F7000841
:1001E00010F8012B11F8013B012A28BF9A42F7D0E1
:1001F000D01A7047034613F8012B002AFBD1181AB6
:1002000001387047000000000000000000000000FE
:1002100001F0FF01102A2BDB10F0070F08D010F8B7
:10022000013B013A8B422DD010F0070F42B3F6D1BB
:10023000F0B441EA012141EA014122F007047FF0D4
:1002400000070023F0E80256083C85EA010586EA2B
:10025000010685FA47F5A3FA87F586FA47F6A5FA67
:1002600087F68EB9EED1F0BC01F0FF0102F0070273
:1002700032B110F8013B013A83EA010313B1F8D11E
:100280000020704701387047002D06BF35460338FF
:10029000073815F0010F07D1013015F4807F02BF38
:1002A000013015F4C03F0130F0BC0138704700BF89
:1002B00081F0004102E000BF83F0004330B54FEA17
:1002C00041044FEA430594EA050F08BF90EA020F84
:1002D0001FBF54EA000C55EA020C7FEA645C7FEA17
:1002E000655C00F0E2804FEA5454D4EB5555B8BF3A
:1002F0006D420CDD2C4480EA020281EA030382EAAB
:10030000000083EA010180EA020281EA0303362D3C
:1003100088BF30BD11F0004F4FEA01314FF4801C0F
:100320004CEA113102D0404261EB410113F0004F21
:100330004FEA03334CEA133302D0524263EB4303D8
:1003400094EA050F00F0A780A4F10104D5F1200E76
:100350000DDB02FA0EFC22FA05F2801841F10001D1
:1003600003FA0EF2801843FA05F359410EE0A5F1A5
:1003700020050EF1200E012A03FA0EFC28BF4CF0D6
:10038000020C43FA05F3C01851EBE37101F000458C
:1003900007D54FF0000EDCF1000C7EEB00006EEB99
:1003A0000101B1F5801F1BD3B1F5001F0CD3490823
:1003B0005FEA30004FEA3C0C04F101044FEA44527A
:1003C00012F5800F80F09A80BCF1004F08BF5FEA01
:1003D000500C50F1000041EB045141EA050130BDE1
:1003E0005FEA4C0C404141EB0101013C28BFB1F5F3
:1003F000801FE9D291F0000F04BF01460020B1FA3E
:1004000081F308BF2033A3F10B03B3F120020CDA10
:100410000C3208DD02F1140CC2F10C0201FA0CF0EE
:1004200021FA02F10CE002F11402D8BFC2F1200C53
:1004300001FA02F120FA0CFCDCBF41EA0C01904009
:10044000E41AA2BF01EB0451294330BD6FEA040452
:100450001F3C1CDA0C340EDC04F11404C4F120023D
:1004600020FA04F001FA02F340EA030021FA04F34F
:1004700045EA030130BDC4F10C04C4F1200220FAA6
:1004800002F001FA04F340EA0300294630BD21FAE4
:1004900004F0294630BD94F0000F83F4801306BFAA
:1004A00081F480110134013D4EE77FEA645C18BF9E
:1004B0007FEA655C29D094EA050F08BF90EA020F35
:1004C00005D054EA000C04BF1946104630BD91EA2D
:1004D000030F1EBF0021002030BD5FEA545C05D130
:1004E0004000494128BF41F0004130BD14F580046F
:1004F0003CBF01F5801130BD01F0004545F0FE41E3
:1005000041F470014FF0000030BD7FEA645C1ABF17
:10051000194610467FEA655C1CBF0B46024650EA4E
:10052000013406BF52EA033591EA030F41F400217A
:1005300030BD00BF90F0000F04BF0021704730B500
:100540004FF4806404F132044FF000054FF00001D5
:1005500050E700BF90F0000F04BF0021704730B596
:100560004FF4806404F1320410F0004548BF40426B
:100570004FF000013EE700BF42004FEAE2014FEAC0
:1005800031014FEA02701FBF12F07F4393F07F4F9B
:1005900081F06051704732F07F4208BF704793F09E
:1005A0007F4F04BF41F40021704730B54FF46074B1
:1005B00001F0004521F000411CE700BF50EA0102B4
:1005C00008BF704730B54FF000050AE050EA01025D
:1005D00008BF704730B511F0004502D5404261EBCD
:1005E00041014FF4806404F132045FEA915C3FF40E
:1005F000D8AE4FF003025FEADC0C18BF03325FEAAB
:10060000DC0C18BF033202EBDC02C2F1200300FA5B
:1006100003FC20FA02F001FA03FE40EA0E0021FA80
:1006200002F11444BDE600BF70B54FF0FF0C4CF46E
:10063000E06C1CEA11541DBF1CEA135594EA0C0F20
:1006400095EA0C0F00F0DEF82C4481EA030621EA5B
:100650004C5123EA4C5350EA013518BF52EA033596
:1006600041F4801143F4801338D0A0FB02CE4FF048
:100670000005E1FB02E506F00042E0FB03E54FF078
:100680000006E1FB03569CF0000F18BF4EF0010E70
:10069000A4F1FF04B6F5007F64F5407404D25FEA6C
:1006A0004E0E6D4146EB060642EAC62141EA55511F
:1006B0004FEAC52040EA5E504FEACE2EB4F1FD0C61
:1006C00088BFBCF5E06F1ED8BEF1004F08BF5FEADF
:1006D000500E50F1000041EB045170BD06F0004691
:1006E00046EA010140EA020081EA0301B4EB5C043E
:1006F000C2BFD4EB0C0541EA045170BD41F4801136
:100700004FF0000E013C00F3AB8014F1360FDEBF5A
:10071000002001F0004170BDC4F10004203C35DA36
:100720000C341BDC04F11404C4F1200500FA05F3B9
:1007300020FA04F001FA05F240EA020001F000425A
:1007400021F0004110EBD37021FA04F642EB0601D0
:100750005EEA430E08BF20EAD37070BDC4F10C04FA
:10076000C4F1200500FA04F320FA05F001FA04F2BE
:1007700040EA020001F0004110EBD37041F10001AA
:100780005EEA430E08BF20EAD37070BDC4F12005B5
:1007900000FA05F24EEA020E20FA04F301FA05F21D
:1007A00043EA020321FA04F001F0004121FA04F2C5
:1007B00020EA020000EBD3705EEA430E08BF20EA95
:1007C000D37070BD94F0000F0FD101F000464000CF
:1007D00041EB010111F4801F08BF013CF7D041EA51
:1007E000060195F0000F18BF704703F00046520055
:1007F00043EB030313F4801F08BF013DF7D043EA26
:100800000603704794EA0C0F0CEA135518BF95EADB
:100810000C0F0CD050EA410618BF52EA4306D1D162
:1008200081EA030101F000414FF0000070BD50EA81
:10083000410606BF1046194652EA430619D094EA0B
:100840000C0F02D150EA013613D195EA0C0F05D1F5
:1008500052EA03361CBF104619460AD181EA030149
:1008600001F0004141F0FE4141F470014FF0000001
:1008700070BD41F0FE4141F4780170BD70B54FF09C
:10088000FF0C4CF4E06C1CEA11541DBF1CEA13551C
:1008900094EA0C0F95EA0C0F00F0A7F8A4EB0504FE
:1008A00081EA030E52EA03354FEA013100F08880F5
:1008B0004FEA03334FF0805545EA131343EA1263BE
:1008C0004FEA022245EA111545EA10654FEA002673
:1008D0000EF000419D4208BF964244F1FD0404F52C
:1008E000407402D25B084FEA3202B61A65EB030588
:1008F0005B084FEA32024FF480104FF4002CB6EB45
:10090000020E75EB030E22BFB61A754640EA0C00C4
:100910005B084FEA3202B6EB020E75EB030E22BF04
:10092000B61A754640EA5C005B084FEA3202B6EB45
:10093000020E75EB030E22BFB61A754640EA9C0004
:100940005B084FEA3202B6EB020E75EB030E22BFD4
:10095000B61A754640EADC0055EA060E18D04FEA92
:10096000051545EA16754FEA06164FEAC30343EA32
:1009700052734FEAC2025FEA1C1CC0D111F4801FFF
:100980000BD141EA00014FF000004FF0004CB6E7F8
:1009900011F4801F04BF01430020B4F1FD0C88BF97
:1009A000BCF5E06F3FF6AFAEB5EB030C04BFB6EBA2
:1009B000020C5FEA500C50F1000041EB045170BD95
:1009C0000EF0004E4EEA113114EB5C04C2BFD4EBC2
:1009D0000C0541EA045170BD41F480114FF0000E46
:1009E000013C90E645EA060E8DE60CEA135594EAC2
:1009F0000C0F08BF95EA0C0F3FF43BAF94EA0C0FC5
:100A00000AD150EA01347FF434AF95EA0C0F7FF439
:100A100025AF104619462CE795EA0C0F06D152EA8D
:100A200003353FF4FDAE1046194622E750EA410671
:100A300018BF52EA43067FF4C5AE50EA41047FF482
:100A40000DAF52EA43057FF4EBAE12E74FF0FF3CE7
:100A500006E000BF4FF0010C02E000BF4FF0010CB8
:100A60004DF804CD4FEA410C7FEA6C5C4FEA430C31
:100A700018BF7FEA6C5C1BD001B050EA410C0CBF80
:100A800052EA430C91EA030F02BF90EA020F0020E2
:100A9000704710F1000F91EA030F58BF994208BF49
:100AA00090422CBFD8176FEAE37040F00100704706
:100AB0004FEA410C7FEA6C5C02D150EA013C07D15D
:100AC0004FEA430C7FEA6C5CD6D152EA033CD3D0A8
:100AD0005DF8040B704700BF8446104662468C46A2
:100AE0001946634600E000BF01B5FFF7B7FF0028D5
:100AF00048BF10F1000F01BD4DF808EDFFF7F4FFFE
:100B00000CBF012000205DF808FB00BF4DF808ED88
:100B1000FFF7EAFF34BF012000205DF808FB00BFAB
:100B20004DF808EDFFF7E0FF94BF012000205DF8CD
:100B300008FB00BF4DF808EDFFF7CEFF94BF012082
:100B400000205DF808FB00BF4DF808EDFFF7C4FF7B
:100B500034BF012000205DF808FB00BF4FEA410CC4
:100B60007FEA6C5C02D150EA013C0AD14FEA430CA7
:100B70007FEA6C5C02D152EA033C02D14FF00000E4
:100B800070474FF0010070474FEA410212F5001222
:100B900015D211D56FF47873B3EB625212D94FEAC4
:100BA000C12343F0004343EA505311F0004F23FAAE
:100BB00002F018BF404270474FF00000704750EA03
:100BC000013005D111F0004008BF6FF000407047C0
:100BD0004FF00000704700BF4FEA4102B2F1E0431E
:100BE00024BFB3F5001CDCF1FE5C0DD901F0004C14
:100BF0004FEAC0024CEA5070B2F1004F40EB830064
:100C000008BF20F00100704711F0804F21D113F18F
:100C10003872BCBF01F00040704741F480114FEAC8
:100C20005252C2F11802C2F1200C10FA0CF320FA51
:100C300002F018BF40F001004FEAC1234FEAD3236E
:100C400003FA0CFC40EA0C0023FA02F34FEA4303D8
:100C5000CCE77FEA625307D150EA01331EBF4FF061
:100C6000FE4040F44000704701F0004040F0FE407C
:100C700040F40000704700BF53B94AB9002908BFCB
:100C800000281CBF4FF0FF314FF0FF3000F074B967
:100C9000ADF1080C6DE904CE00F006F8DDF804E0D3
:100CA000DDE9022304B070472DE9F047089D0446B2
:100CB0008E46002B4DD18A42944669D9B2FA82F20F
:100CC00052B101FA02F3C2F1200120FA01F10CFA4B
:100CD00002FC41EA030E94404FEA1C48210CBEFB83
:100CE000F8F61FFA8CF708FB16E341EA034306FB0C
:100CF00007F199420AD91CEB030306F1FF3080F09B
:100D00001F81994240F21C81023E63445B1AA4B2E7
:100D1000B3FBF8F008FB103344EA034400FB07F789
:100D2000A7420AD91CEB040400F1FF3380F00A81CA
:100D3000A74240F207816444023840EA0640E41BBF
:100D400000261DB1D4400023C5E900433146BDE86B
:100D5000F0878B4209D9002D00F0EF800026C5E90D
:100D6000000130463146BDE8F087B3FA83F6002E25
:100D70004AD18B4202D3824200F2F980841A61EB9D
:100D8000030301209E46002DE0D0C5E9004EDDE7BB
:100D900002B9FFDEB2FA82F2002A40F09280A1EBA3
:100DA0000C014FEA1C471FFA8CFE0126200CB1FBF8
:100DB000F7F307FB131140EA01410EFB03F08842F1
:100DC00008D91CEB010103F1FF3802D2884200F27E
:100DD000CB804346091AA4B2B1FBF7F007FB101110
:100DE00044EA01440EFB00FEA64508D91CEB0404AE
:100DF00000F1FF3102D2A64500F2BB800846A4EB09
:100E00000E0440EA03409CE7C6F12007B34022FAF3
:100E100007FC4CEA030C20FA07F401FA06F31C4322
:100E2000F9404FEA1C4900FA06F3B1FBF9F8200C2F
:100E30001FFA8CFE09FB181140EA014108FB0EF075
:100E4000884202FA06F20BD91CEB010108F1FF3AC5
:100E500080F08880884240F28580A8F102086144D1
:100E6000091AA4B2B1FBF9F009FB101144EA0141DF
:100E700000FB0EFE8E4508D91CEB010100F1FF348A
:100E80006CD28E456AD90238614440EA0840A0FB22
:100E90000294A1EB0E01A142C846A64656D353D0F8
:100EA0005DB1B3EB080261EB0E0101FA07F722FA1C
:100EB00006F3F1401F43C5E9007100263146BDE845
:100EC000F087C2F12003D8400CFA02FC21FA03F3A8
:100ED000914001434FEA1C471FFA8CFEB3FBF7F029
:100EE00007FB10360B0C43EA064300FB0EF69E424E
:100EF00004FA02F408D91CEB030300F1FF382FD2E7
:100F00009E422DD9023863449B1B89B2B3FBF7F68E
:100F100007FB163341EA034106FB0EF38B4208D967
:100F20001CEB010106F1FF3816D28B4214D9023EA8
:100F30006144C91A46EA004638E72E46284605E7C6
:100F40000646E3E61846F8E64B45A9D2B9EB020897
:100F500064EB0C0E0138A3E74646EAE7204694E727
:100F60004046D1E7D0467BE7023B614432E730465A
:100F700009E76444023842E7704700BF80B586B095
:100F800004AF0346FB710B46BB7113467B71FB79C3
:100F90005B00FB71FB7999B2BB799AB20A23029389
:100FA000012301937B1D00930123044803F0E6FA1B
:100FB000034618460837BD4680BD00BFE802002042
:100FC00080B588B004AF03460A46FB711346BB7177
:100FD000FB795B00FB71FB7999B2BB799AB2012373
:100FE00002930123019307F10F03009301230448A7
:100FF00003F0BEFBFB7B18461037BD4680BD00BF2B
:10100000E802002080B582B000AF012210213748ED
:1010100003F056F9012002F081FE01220D214A2041
:10102000FFF7ACFF992200214A20FFF7A7FF80229B
:1010300047214A20FFF7A2FF32214A20FFF7C0FFD5
:101040000346FB71FB7963F07F03DBB21A46322162
:101050004A20FFF793FF32214A20FFF7B1FF0346F2
:10106000FB71FB7903F07F03DBB21A4632214A2081
:10107000FFF784FF002200214A20FFF77FFFAF2205
:1010800004214A20FFF77AFF70220D214A20FFF742
:1010900075FF812205214A20FFF770FF07220621F4
:1010A0004A20FFF76BFF00220A214A20FFF766FF64
:1010B000002227214A20FFF761FF0A221A214A2035
:1010C000FFF75CFF0A221B214A20FFF757FF0F2280
:1010D0001F214A20FFF752FF9E2202214A20FFF7DC
:1010E0004DFF00BF0837BD4680BD00BF000C024069
:1010F000B0B52DED028BADF5855D86B000AF02F089
:101100009BFD02F0B5F802F01BF902F0F9F902F0CC
:1011100037F902F063F902F08FF902F0BBF90AF037
:1011200063FBD54B1B68DA69D34B1B6842F48062C2
:10113000DA61D24B1B681A68D04B1B6842F001027F
:101140001A6000221021CE4803F0BAF8CD4B07F503
:10115000845202F1140213604FF4804307F5845265
:1011600002F110021360002307F5855202F1140208
:1011700013606DE007F5845303F110031B6807EE5D
:10118000903AB8EEE78A07F5855303F1140318681F
:10119000FFF7E0F9B2A3D3E90023FFF745FA0246CF
:1011A0000B4614461D4607F5845303F114031868D3
:1011B000FFF7E2F902460B4620462946FFF75EFBA1
:1011C00002460B4610461946FFF706FD034600EEA1
:1011D000103A0DF08DFDF0EE407A68EE277AFDEEC4
:1011E000E77A17EE903A07F5835202F10E02138068
:1011F00007F5855303F11803A3F5007307F585522E
:1012000002F11402126807F5835101F10E010988F9
:1012100023F8221007F5855303F11803A3F5007294
:1012200007F5855303F114031B689B00134407F56E
:10123000835202F10E0212885A8007F5855303F19A
:1012400014031B68013307F5855202F11402136081
:1012500007F5855303F114031B686C2B8AD900230F
:1012600007F5855202F1140213606DE007F584530F
:1012700003F110031B6807EE903AB8EEE78A07F512
:10128000855303F114031868FFF764F976A3D3E9D3
:101290000023FFF7C9F902460B4614461D4607F521
:1012A000845303F114031868FFF766F902460B46EE
:1012B00020462946FFF7E2FA02460B461046194639
:1012C000FFF78AFC034600EE103A0DF011FDF0EE38
:1012D000407A68EE277AFDEEE77A17EE903A07F546
:1012E000835202F11002138007F5855303F11803AE
:1012F000A3F2DC4307F5855202F11402126807F5E8
:10130000835101F11001098823F8221007F5855354
:1013100003F11803A3F2DC4207F5855303F114032C
:101320001B689B00134407F5835202F110021288D8
:101330005A8007F5855303F114031B68013307F541
:10134000855202F11402136007F5855303F114036B
:101350001B68B62B8AD9002307F5855202F11402C7
:1013600013606DE007F5845303F110031B6807EE6B
:10137000903AB8EEE78A07F5855303F1140318682D
:10138000FFF7E8F83AA3D3E90023FFF74DF9024647
:101390000B4614461D4607F5845303F114031868E1
:1013A000FFF7EAF802460B4620462946FFF766FAA1
:1013B00002460B4610461946FFF70EFC034600EEA8
:1013C000103A0DF095FCF0EE407A68EE277AFDEECB
:1013D000E77A17EE903A07F5835202F11202138072
:1013E00007F5855303F11803A3F6D80307F58552D3
:1013F00002F11402126807F5835101F11201098804
:1014000023F8221007F5855303F11803A3F6D80239
:1014100007F5855303F114031B689B00134407F57C
:10142000835202F1120212885A8007F5855303F1A4
:1014300014031B68013307F5855202F1140213608F
:1014400007F5855303F114031B68A22B8AD90023E7
:1014500007F5855202F11402136084E0AFF30080B7
:10146000C1966AFC3399A54027C63D38C7B8994054
:10147000CA4BC6A206DD9C4084030020E80200207F
:10148000000C024000803B4707F5845303F1100332
:101490001B6807EE903AB8EEE78A07F5855303F12B
:1014A00014031868FFF756F80FF25873D3E90023B6
:1014B000FFF7BAF802460B4614461D4607F584535B
:1014C00003F114031868FFF757F802460B4620464D
:1014D0002946FFF7D3F902460B4610461946FFF797
:1014E0007BFB034600EE103A0DF002FCF0EE407A72
:1014F00068EE277AFDEEE77A17EE903A07F5835209
:1015000002F11402138007F5855303F11803A3F6C3
:101510001C3307F5855202F11402126807F5835156
:1015200001F11401098823F8221007F5855303F10E
:101530001803A3F61C3207F5855303F114031B6847
:101540009B00134407F5835202F1140212885A805B
:1015500007F5855303F114031B68013307F5855222
:1015600002F11402136007F5855303F114031B689D
:10157000902B89D9002307F5855202F114021360DC
:101580006EE007F5845303F110031B6807EE903AF1
:10159000B8EEE78A07F5855303F114031868FEF7E0
:1015A000D9FF0FF26863D3E90023FFF73DF8024645
:1015B0000B4614461D4607F5845303F114031868BF
:1015C000FEF7DAFF02460B4620462946FFF756F99A
:1015D00002460B4610461946FFF7FEFA034600EE98
:1015E000103A0DF085FBF0EE407A68EE277AFDEEBA
:1015F000E77A17EE903A07F5835202F1160213804C
:1016000007F5855303F11803A3F6445307F58552F4
:1016100002F11402126807F5835101F116010988DD
:1016200023F8221007F5855303F11803A3F644525B
:1016300007F5855303F114031B689B00134407F55A
:10164000835202F1160212885A8007F5855303F17E
:1016500014031B68013307F5855202F1140213606D
:1016600007F5855303F114031B68892B89D90023DF
:1016700007F5855202F1140213606EE007F58453FA
:1016800003F110031B6807EE903AB8EEE78A07F5FE
:10169000855303F114031868FEF75CFF0FF27453CF
:1016A000D3E90023FEF7C0FF02460B4614461D4651
:1016B00007F5845303F114031868FEF75DFF024633
:1016C0000B4620462946FFF7D9F802460B4610463E
:1016D0001946FFF781FA034600EE103A0DF008FBB9
:1016E000F0EE407A68EE277AFDEEE77A17EE903A50
:1016F00007F5835202F11802138007F5855303F1B1
:101700001803A3F62C7307F5855202F11402126830
:1017100007F5835101F11801098823F8221007F514
:10172000855303F11803A3F62C7207F5855303F1D3
:1017300014031B689B00134407F5835202F118023F
:1017400012885A8007F5855303F114031B6801338F
:1017500007F5855202F11402136007F5855303F172
:1017600014031B68792B89D9002307F5855202F1F0
:10177000140213606BE007F5845303F110031B6838
:1017800007EE903AB8EEE78A07F5855303F11403A4
:101790001868FEF7DFFE0FF28443D3E90023FEF75B
:1017A00043FF02460B4614461D4607F5845303F1DA
:1017B00014031868FEF7E0FE02460B462046294651
:1017C000FFF75CF802460B4610461946FFF704FA8D
:1017D000034600EE103A0DF08BFAF0EE407A68EE18
:1017E000277AFDEEE77A17EE903A07F5835202F179
:1017F0001A02138007F1B8031A4607F5855303F15F
:1018000014031B689B00134407F5835202F11A026C
:10181000128823F8B02C07F1B8031A4607F5855350
:1018200003F114031B689B00134407F5835202F174
:101830001A02128823F8AE2C07F5855303F114031E
:101840001B68013307F5855202F11402136007F596
:10185000855303F114031B68602B8CD9002307F513
:10186000855202F1140213606DE007F5845303F111
:1018700010031B6807EE903AB8EEE78A07F5855328
:1018800003F114031868FEF765FEE6A3D3E900230D
:10189000FEF7CAFE02460B4614461D4607F5845362
:1018A00003F114031868FEF767FE02460B46204654
:1018B0002946FEF7E3FF02460B4610461946FFF79E
:1018C0008BF9034600EE103A0DF012FAF0EE407A72
:1018D00068EE277AFDEEE77A17EE903A07F5835225
:1018E00002F11C02138007F5855303F11803A3F2DC
:1018F0004C6307F5855202F11402126807F5835113
:1019000001F11C01098823F8221007F5855303F122
:101910001803A3F24C6207F5855303F114031B6807
:101920009B00134407F5835202F11C0212885A806F
:1019300007F5855303F114031B68013307F585523E
:1019400002F11402136007F5855303F114031B68B9
:101950005B2B8AD9002307F5855202F11002136030
:10196000002307F5855202F10F0213700121A248EE
:1019700002F08EFC034607F5845202F10F02137049
:1019800007F5845303F10F031B78002B06D00123C6
:1019900007F5855202F10F02137078E107F58553C0
:1019A00003F10F031B78002B00F0718107F58553BD
:1019B00003F110031B68013307F5855202F1100291
:1019C000136007F5855303F110031B68012B40F0EA
:1019D0005E81FFF717FB01224FF40041874802F0B8
:1019E0006FFC002307F5855202F11402136012E028
:1019F00007F6DC310A234FF4B772814803F07AFD11
:101A000007F5855303F114031B68013307F585526D
:101A100002F11402136007F5855303F114031B68E8
:101A2000402BE5DD002307F5855202F11402136017
:101A300012E007F5FC610A234FF4A372704803F02B
:101A400059FD07F5855303F114031B68013307F5AE
:101A5000855202F11402136007F5855303F1140354
:101A60001B68482BE5DD002307F5855202F11402BF
:101A7000136012E007F29C510A234FF49172604800
:101A800003F038FD07F5855303F114031B68013398
:101A900007F5855202F11402136007F5855303F12F
:101AA00014031B68512BE5DD002307F5855202F175
:101AB0001402136012E007F55D710A234FF48A7275
:101AC0004F4803F017FD07F5855303F114031B6816
:101AD000013307F5855202F11402136007F58553AF
:101AE00003F114031B68562BE5DD002307F585522F
:101AF00002F11402136011E007F5C6710A23F42203
:101B00003F4803F0F7FC07F5855303F114031B6806
:101B1000013307F5855202F11402136007F585536E
:101B200003F114031B68C32BE6DD002307F5855280
:101B300002F11402136011E007F5C6710A23F422C2
:101B40002F4803F0D7FC07F5855303F114031B68F6
:101B5000013307F5855202F11402136007F585532E
:101B600003F114031B68C32BE6DD002307F5855240
:101B700002F11402136011E007F6B8610A23DA22B9
:101B80001F4803F0B7FC07F5855303F114031B68E6
:101B9000013307F5855202F11402136007F58553EE
:101BA00003F114031B68DB2BE6DD002307F58552E8
:101BB00002F11402136011E007F6B8610A23DA2279
:101BC0000F4803F097FC07F5855303F114031B68D6
:101BD000013307F5855202F11402136007F58553AE
:101BE00003F114031B68DB2BE6DD002307F58552A8
:101BF00002F1140213602BE000000240000C0240CE
:101C00008403002010F14FFDE632A040BD78F0D0F3
:101C1000A921A1408632846C043EA34082C74D7E38
:101C2000C93FA84010A4933A36ACA94007F5C67145
:101C30000A23F422C64803F05DFC07F5855303F13F
:101C400014031B68013307F5855202F11402136077
:101C500007F5855303F114031B68B3F5C47FE5DB77
:101C600000221021BB4802F02BFB00224FF4004160
:101C7000B84802F025FB002307F5855202F10F0258
:101C80001370002307F5855202F110021360B24869
:101C9000FEF7B0FA034607F5845202F10E02137004
:101CA000002307F5855202F108021360002307F5AF
:101CB000855202F10402136007F5845303F10E0309
:101CC0001B78002B3FF452AEFFF79CF9A24B1B7818
:101CD000412B40F02C84002307F58552136000232C
:101CE00007F5845202F11C0213601FE007F58553CB
:101CF0001A6813469B0013445B00194607F584538A
:101D000003F11C031B680433934AD35C303B0B4440
:101D100007F58552136007F5845303F11C031B6814
:101D2000013307F5845202F11C02136007F5845356
:101D300003F11C031B68042BD8DD07F585531B68D2
:101D400007F5845202F110021360002307F5855253
:101D500002F1140213606DE007F5845303F11003E0
:101D60001B6807EE903AB8EEE78A07F5855303F152
:101D700014031868FEF7EEFB71A3D3E90023FEF706
:101D800053FC02460B4614461D4607F5845303F1E7
:101D900014031868FEF7F0FB02460B46204629465E
:101DA000FEF76CFD02460B4610461946FEF714FF7F
:101DB000034600EE103A0CF09BFFF0EE407A68EE1E
:101DC000277AFDEEE77A17EE903A07F5835202F193
:101DD0001E02138007F5855303F11803A3F5007362
:101DE00007F5855202F11402126807F5835101F1DB
:101DF0001E01098823F8221007F5855303F1180303
:101E0000A3F5007207F5855303F114031B689B00CB
:101E1000134407F5835202F11E0212885A8007F517
:101E2000855303F114031B68013307F5855202F152
:101E30001402136007F5855303F114031B686C2B20
:101E40008AD9002307F5855202F11402136067E076
:101E500007F5845303F110031B6807EE903AB8EEC0
:101E6000E78A07F5855303F114031868FEF772FB40
:101E700035A3D3E90023FEF7D7FB02460B461446F1
:101E80001D4607F5845303F114031868FEF774FB2D
:101E900002460B4620462946FEF7F0FC02460B465A
:101EA00010461946FEF798FE034600EE103A0CF075
:101EB0001FFFF0EE407A68EE277AFDEEE77A17EE24
:101EC000903A07F58452138007F5855303F1180300
:101ED000A3F2DC4307F5855202F11402126807F5FC
:101EE0008451098823F8221007F5855303F118035C
:101EF000A3F2DC4207F5855303F114031B689B0032
:101F0000134407F5845212885A8007F5855303F16C
:101F100014031B68013307F5855202F114021360A4
:101F200007F5855303F114031B68B62B90D90023E2
:101F300007F5855202F1140213607EE0AFF30080D2
:101F4000C1966AFC3399A54027C63D38C7B8994069
:101F500084030020000C02400C17002007F5845376
:101F600003F110031B6807EE903AB8EEE78A07F515
:101F7000855303F114031868FEF7ECFA0FF6F40327
:101F8000D3E90023FEF750FB02460B4614461D46DC
:101F900007F5845303F114031868FEF7EDFA0246BF
:101FA0000B4620462946FEF769FC02460B461046C2
:101FB0001946FEF711FE034600EE103A0CF098FEAB
:101FC000F0EE407A68EE277AFDEEE77A17EE903A67
:101FD00007F5845202F10202138007F5855303F1DD
:101FE0001803A3F6D80307F5855202F1140212680C
:101FF00007F5845101F10201098823F8221007F541
:10200000855303F11803A3F6D80207F5855303F1AE
:1020100014031B689B00134407F5845202F102026B
:1020200012885A8007F5855303F114031B680133A6
:1020300007F5855202F11402136007F5855303F189
:1020400014031B68A22B89D9002307F5855202F1DE
:10205000140213606EE007F5845303F110031B684C
:1020600007EE903AB8EEE78A07F5855303F11403BB
:102070001868FEF76FFA0FF60403D3E90023FEF7A2
:10208000D3FA02460B4614461D4607F5845303F166
:1020900014031868FEF770FA02460B4620462946DC
:1020A000FEF7ECFB02460B4610461946FEF794FD80
:1020B000034600EE103A0CF01BFEF0EE407A68EE9C
:1020C000277AFDEEE77A17EE903A07F5845202F18F
:1020D0000402138007F5855303F11803A3F61C339C
:1020E00007F5855202F11402126807F5845101F1D7
:1020F0000401098823F8221007F5855303F118031A
:10210000A3F61C3207F5855303F114031B689B00EB
:10211000134407F5845202F1040212885A8007F52D
:10212000855303F114031B68013307F5855202F14F
:102130001402136007F5855303F114031B68902BF9
:1021400089D9002307F5855202F1140213606EE06D
:1021500007F5845303F110031B6807EE903AB8EEBD
:10216000E78A07F5855303F114031868FEF7F2F9BF
:102170000FF21073D3E90023FEF756FA02460B461E
:1021800014461D4607F5845303F114031868FEF73F
:10219000F3F902460B4620462946FEF76FFB02463E
:1021A0000B4610461946FEF717FD034600EE103A9F
:1021B0000CF09EFDF0EE407A68EE277AFDEEE77AAD
:1021C00017EE903A07F5845202F10602138007F5E4
:1021D000855303F11803A3F6445307F5855202F122
:1021E0001402126807F5845101F10601098823F8E9
:1021F000221007F5855303F11803A3F6445207F59F
:10220000855303F114031B689B00134407F58452A4
:1022100002F1060212885A8007F5855303F1140370
:102220001B68013307F5855202F11402136007F5AC
:10223000855303F114031B68892B89D9002307F503
:10224000855202F1140213606EE007F5845303F126
:1022500010031B6807EE903AB8EEE78A07F585533E
:1022600003F114031868FEF775F90FF22063D3E940
:102270000023FEF7D9F902460B4614461D4607F522
:10228000845303F114031868FEF776F902460B46EF
:1022900020462946FEF7F2FA02460B46104619463A
:1022A000FEF79AFC034600EE103A0CF021FDF0EE2A
:1022B000407A68EE277AFDEEE77A17EE903A07F556
:1022C000845202F10802138007F5855303F11803C5
:1022D000A3F62C7307F5855202F11402126807F574
:1022E000845101F10801098823F8221007F585536C
:1022F00003F11803A3F62C7207F5855303F11403B9
:102300001B689B00134407F5845202F108021288EF
:102310005A8007F5855303F114031B68013307F551
:10232000855202F11402136007F5855303F114037B
:102330001B68792B89D9002307F5855202F1140215
:1023400013606BE007F5845303F110031B6807EE7D
:10235000903AB8EEE78A07F5855303F1140318683D
:10236000FEF7F8F80FF22C53D3E90023FEF75CF9DF
:1023700002460B4614461D4607F5845303F1140329
:102380001868FEF7F9F802460B4620462946FEF784
:1023900075FA02460B4610461946FEF71DFC034629
:1023A00000EE103A0CF0A4FCF0EE407A68EE277ACA
:1023B000FDEEE77A17EE903A07F5845202F10A0231
:1023C000138007F1B8031A4607F5855303F1140388
:1023D0001B689B00134407F5845202F10A0212881D
:1023E00023F8B02C07F1B8031A4607F5855303F11B
:1023F00014031B689B00134407F5845202F10A0280
:10240000128823F8AE2C07F5855303F114031B68DB
:10241000013307F5855202F11402136007F5855365
:1024200003F114031B68602B8CD9002307F5855238
:1024300002F1140213606EE007F5845303F11003F8
:102440001B6807EE903AB8EEE78A07F5855303F16B
:1024500014031868FEF77EF80FF24043D3E9002317
:10246000FEF7E2F802460B4614461D4607F5845374
:1024700003F114031868FEF77FF802460B46204666
:102480002946FEF7FBF902460B4610461946FEF7B1
:10249000A3FB034600EE103A0CF02AFCF0EE407A63
:1024A00068EE277AFDEEE77A17EE903A07F5845248
:1024B00002F10C02138007F5855303F11803A3F210
:1024C0004C6307F5855202F11402126807F5845136
:1024D00001F10C01098823F8221007F5855303F157
:1024E0001803A3F24C6207F5855303F114031B682C
:1024F0009B00134407F5845202F10C0212885A80A3
:1025000007F5855303F114031B68013307F5855262
:1025100002F11402136007F5855303F114031B68DD
:102520005B2B89D964220021C74809F0C3FE01232F
:1025300007F5845202F11802136000F072BEC24A1D
:1025400007F5845303F118031B6813441A7807F145
:10255000B803194607F5855303F104031B680B44C0
:10256000B83B1A7007F5855303F108031B68013364
:1025700007F5855202F10802136007F5855303F150
:1025800004031B68013307F5855202F1040213604E
:1025900001224FF48041AD4801F092FE07F58553CA
:1025A00003F108031B68062B40F0178607F1180398
:1025B000183BA7491846FDF713FE0346002B22D10E
:1025C000002307F5855202F11402136012E007F6AA
:1025D000DC310A234FF4B7729E4802F08BFF07F5F7
:1025E000855303F114031B68013307F5855202F18B
:1025F0001402136007F5855303F114031B68402B85
:10260000E5DD00F0BCBD07F11803183B9249184600
:10261000FDF7E6FD0346002B22D1002307F5855286
:1026200002F11402136012E007F6DC310A234FF4C2
:10263000B772884802F05EFF07F5855303F1140373
:102640001B68013307F5855202F11402136007F588
:10265000855303F114031B68822BE5DD00F08FBD69
:1026600007F11803183B7D491846FDF7B9FD0346ED
:10267000002B23D1002307F5855202F114021360C9
:1026800012E007F6DC310A234FF4B772714802F00A
:1026900031FF07F5855303F114031B68013307F578
:1026A000855202F11402136007F5855303F11403F8
:1026B0001B68B3F5837FE4DB00F061BD07F118030D
:1026C000183B67491846FDF78BFD0346002B23D1C5
:1026D000002307F5855202F11402136012E007F699
:1026E000DC310A234FF4B7725A4802F003FF07F5B2
:1026F000855303F114031B68013307F5855202F17A
:102700001402136007F5855303F114031B68B3F536
:10271000037FE4DB00F033BD07F11803183B514998
:102720001846FDF75DFD0346002B21D1002307F578
:10273000855202F11402136011E007F6B8610A2312
:10274000DA22444802F0D6FE07F5855303F114035C
:102750001B68013307F5855202F11402136007F577
:10276000855303F114031B686D2BE6DD00F007BDF4
:1027700007F11803183B3C491846FDF731FD0346A5
:10278000002B21D1002307F5855202F114021360BA
:1027900011E007F6B8610A23DA222E4802F0AAFEF9
:1027A00007F5855303F114031B68013307F58552C0
:1027B00002F11402136007F5855303F114031B683B
:1027C000DB2BE6DD00F0DBBC07F11803183B2749E3
:1027D0001846FDF705FD0346002B22D1002307F51F
:1027E000855202F11402136011E007F6B8610A2362
:1027F000DA22184802F07EFE07F5855303F1140330
:102800001B68013307F5855202F11402136007F5C6
:10281000855303F114031B68B3F5DC7FE5DB00F09F
:10282000AEBC07F11803183B11491846FDF7D8FC58
:102830000346002B52D1002307F5855202F1140202
:10284000136041E0AFF300800C170020000C024041
:10285000C0F7000884030020C8F70008D0F700087C
:10286000D8F70008E0F70008E8F70008F0F70008DC
:10287000F8F70008CA4BC6A206DD9C4010F14FFDD8
:10288000E632A040BD78F0D0A921A1408632846C08
:10289000043EA34082C74D7EC93FA84010A4933A8E
:1028A00036ACA94007F6B8610A23DA22C64802F01E
:1028B00021FE07F5855303F114031B68013307F567
:1028C000855202F11402136007F5855303F11403D6
:1028D0001B68B3F55C7FE5DB00F051BC07F1180322
:1028E000183BBA491846FDF77BFC0346002B22D162
:1028F000002307F5855202F11402136012E007F578
:10290000FC610A234FF4A372AF4802F0F3FD07F510
:10291000855303F114031B68013307F5855202F157
:102920001402136007F5855303F114031B68482B49
:10293000E5DD00F024BC07F11803183BA449184654
:10294000FDF74EFC0346002B21D1002307F58552ED
:1029500002F11402136012E007F5FC610A234FF440
:10296000A372994802F0C6FD07F5855303F11403DD
:102970001B68013307F5855202F11402136007F555
:10298000855303F114031B68922BE5DDF7E307F190
:102990001803183B8F491846FDF722FC0346002B0D
:1029A00022D1002307F5855202F11402136012E0D0
:1029B00007F5FC610A234FF4A372834802F09AFDE5
:1029C00007F5855303F114031B68013307F585529E
:1029D00002F11402136007F5855303F114031B6819
:1029E000B3F5937FE4DBCAE307F11803183B7A4998
:1029F0001846FDF7F5FB0346002B22D1002307F50F
:102A0000855202F11402136012E007F5FC610A23FB
:102A10004FF4A3726C4802F06DFD07F5855303F186
:102A200014031B68013307F5855202F11402136089
:102A300007F5855303F114031B68B3F5137FE4DB3B
:102A40009DE307F11803183B64491846FDF7C8FBDE
:102A50000346002B21D1002307F5855202F1140211
:102A6000136012E007F29C510A234FF4917256480A
:102A700002F040FD07F5855303F114031B68013391
:102A800007F5855202F11402136007F5855303F12F
:102A900014031B68512BE5DD71E307F11803183BA4
:102AA0004F491846FDF79CFB0346002B21D100231C
:102AB00007F5855202F11402136012E007F29C51EF
:102AC0000A234FF49172404802F014FD07F5855334
:102AD00003F114031B68013307F5855202F1140258
:102AE000136007F5855303F114031B68A42BE5DD80
:102AF00045E307F11803183B3A491846FDF770FB08
:102B00000346002B22D1002307F5855202F114025F
:102B1000136012E007F29C510A234FF491722A4885
:102B200002F0E8FC07F5855303F114031B68013339
:102B300007F5855202F11402136007F5855303F17E
:102B400014031B68B3F5A57FE4DB18E307F1180352
:102B5000183B25491846FDF743FB0346002B22D1BD
:102B6000002307F5855202F11402136012E007F208
:102B70009C510A234FF49172134802F0BBFC07F5F5
:102B8000855303F114031B68013307F5855202F1E5
:102B90001402136007F5855303F114031B68B3F5A2
:102BA000257FE4DBEBE207F11803183B0F491846D9
:102BB000FDF716FB0346002B35D1002307F58552A0
:102BC00002F11402136026E08403002000F80008DC
:102BD00008F8000810F8000818F8000820F80008A5
:102BE00028F8000830F8000838F8000840F8000815
:102BF00007F55D710A234FF48A72C44802F07AFC2B
:102C000007F5855303F114031B68013307F585525B
:102C100002F11402136007F5855303F114031B68D6
:102C2000562BE5DDABE207F11803183BB84918460F
:102C3000FDF7D6FA0346002B21D1002307F5855274
:102C400002F11402136012E007F55D710A234FF4DC
:102C50008A72AE4802F04EFC07F5855303F1140367
:102C60001B68013307F5855202F11402136007F562
:102C7000855303F114031B68AD2BE5DD7FE207F1FB
:102C80001803183BA3491846FDF7AAFA0346002B80
:102C900022D1002307F5855202F11402136012E0DD
:102CA00007F55D710A234FF48A72984802F022FCFE
:102CB00007F5855303F114031B68013307F58552AB
:102CC00002F11402136007F5855303F114031B6826
:102CD000B3F5AE7FE4DD52E207F11803183B8E49ED
:102CE0001846FDF77DFA0346002B23D1002307F594
:102CF000855202F11402136012E007F55D710A2398
:102D00004FF48A72814802F0F5FB07F5855303F111
:102D100014031B68013307F5855202F11402136096
:102D200007F5855303F114031B6840F2B92293425F
:102D3000E3DD24E207F11803183B78491846FDF754
:102D40004FFA0346002B20D1002307F5855202F1EC
:102D50001402136011E007F5C6710A23F4226B48D0
:102D600002F0C8FB07F5855303F114031B68013318
:102D700007F5855202F11402136007F5855303F13C
:102D800014031B68612BE6DDF9E107F11803183B1A
:102D900063491846FDF724FA0346002B20D100238F
:102DA00007F5855202F11402136011E007F5C671B0
:102DB0000A23F422554802F09DFB07F5855303F1E1
:102DC00014031B68013307F5855202F114021360E6
:102DD00007F5855303F114031B68C32BE6DDCEE131
:102DE00007F11803183B4F491846FDF7F9F9034658
:102DF000002B21D1002307F5855202F11402136044
:102E000011E007F5C6710A23F422404802F072FB74
:102E100007F5855303F114031B68013307F5855249
:102E200002F11402136007F5855303F114031B68C4
:102E3000B3F5C47FE5DBA2E107F11803183B3A497B
:102E40001846FDF7CDF90346002B21D1002307F5E5
:102E5000855202F11402136011E007F5C6710A23CE
:102E6000F4222A4802F046FB07F5855303F11403C8
:102E70001B68013307F5855202F11402136007F550
:102E8000855303F114031B68B3F5447FE5DB76E15A
:102E900007F11803183B25491846FDF7A1F9034629
:102EA000002B21D1002307F5855202F11402136093
:102EB00012E007F1180110390A23C222134802F068
:102EC00019FB07F5855303F114031B68013307F55C
:102ED000855202F11402136007F5855303F11403C0
:102EE0001B687A2BE5DD4AE107F11803183B10490E
:102EF0001846FDF775F90346002B36D1002307F578
:102F0000855202F11402136027E000BF8403002001
:102F100048F8000850F8000858F8000860F8000861
:102F200068F8000870F8000878F8000880F80008D1
:102F300088F8000807F1180110390A23C222C34893
:102F400002F0D8FA07F5855303F114031B68013327
:102F500007F5855202F11402136007F5855303F15A
:102F600014031B68F62BE5DD09E107F11803183B94
:102F7000B7491846FDF734F90346002B22D1002348
:102F800007F5855202F11402136012E007F11801EF
:102F900010390A23C222AD4802F0ACFA07F5855376
:102FA00003F114031B68013307F5855202F1140283
:102FB000136007F5855303F114031B68B3F5F77F1E
:102FC000E4DBDCE007F11803183BA2491846FDF7E3
:102FD00007F90346002B22D1002307F5855202F1A1
:102FE0001402136012E007F1180110390A23C222FB
:102FF000964802F07FFA07F5855303F114031B6826
:10300000013307F5855202F11402136007F5855369
:1030100003F114031B68B3F5777FE4DBAFE007F13E
:103020001803183B8C491846FDF7DAF80346002BC5
:1030300020D1002307F5855202F11402136011E03C
:1030400007F66C210A23B822804802F053FA07F5EC
:10305000855303F114031B68013307F5855202F110
:103060001402136007F5855303F114031B68812BC9
:10307000E6DD84E007F11803183B78491846FDF7B0
:10308000AFF80346002B21D1002307F5855202F14A
:103090001402136011E007F66C210A23B8226B4872
:1030A00002F028FA07F5855303F114031B68013376
:1030B00007F5855202F11402136007F5855303F1F9
:1030C00014031B68B3F5827FE5DD58E007F11803B0
:1030D000183B63491846FDF783F80346002B22D1BD
:1030E000002307F5855202F11402136011E007F680
:1030F0006C210A23B822554802F0FCF907F58553E4
:1031000003F114031B68013307F5855202F1140221
:10311000136007F5855303F114031B6840F20A227C
:103120009342E4DD2BE007F11803183B4D491846A4
:10313000FDF756F80346002B21D1002307F58552F1
:1031400002F11402136011E007F66C210A23B82281
:103150003E4802F0CFF907F5855303F114031B68CD
:10316000013307F5855202F11402136007F5855308
:1031700003F114031B6840F215429342E4DD07F5A6
:10318000845303F118031B68013307F5845202F1DD
:1031900018021360002307F5855202F1080213603C
:1031A000002307F5855202F10402136007F11803AA
:1031B000183B1846FDF71EF803469AB207F11803AC
:1031C000183B1146184608F0EBFB07F11803183BB3
:1031D00064220021184609F06DF807F5845303F1C5
:1031E0000E031B78013B07F5845202F118021268A6
:1031F0009A420BD100224FF480411B4801F060F845
:1032000000221021184801F05BF817E007F58453FD
:1032100003F118031B68013307F5845202F1180209
:10322000136007F5845303F10E031B7807F58452EE
:1032300002F1180212689A42FFF681A96422002165
:103240000A4809F037F8FEF791BB00BF840300205D
:1032500090F8000898F80008A0F80008A8F80008FE
:10326000B0F80008B8F80008000C02400C17002065
:1032700080B594B000AF07F120033022002118463A
:1032800009F018F807F10C0300221A605A609A60DE
:10329000DA601A610023BB60274B1B6C264A43F09F
:1032A00080531364244B1B6C03F08053BB60BB68DA
:1032B00000237B60214B1B68204A43F4404313608A
:1032C0001E4B1B6803F440437B607B6801233B6219
:1032D0004FF480337B620223BB634FF48003FB63B4
:1032E00004233B64A8237B640423BB640723FB649F
:1032F00007F12003184604F005F80346002B01D01F
:1033000000F0D8F90F23FB6002233B6100237B61AF
:103310004FF48053BB610023FB6107F10C030221D2
:10332000184604F067FA0346002B01D000F0C2F9FA
:1033300000BF5037BD4680BD0038024000700040DD
:1033400080B586B000AF3B4600221A605A609A6092
:10335000DA601A615A6101233B60C823BB60052310
:103360007B600223FB603B46184604F04FFC03469B
:10337000002B01D000F09EF900BF1837BD4680BD7C
:1033800080B500AF124B134A1A60114B124A5A60B3
:103390000F4B00229A600E4B0022DA600C4B4FF468
:1033A00080421A610A4B00225A61094B00229A613D
:1033B000074B0022DA61064B00221A62044800F033
:1033C00099FF0346002B01D000F074F900BF80BDC7
:1033D000E802002000540040A086010080B500AF44
:1033E000124B134A1A60114B4FF400725A600F4B84
:1033F00000229A600D4B0022DA600C4B00221A6109
:103400000A4B0C4A5A61094B00229A61074B002271
:10341000DA61064B01221A62044801F02BFF0346D1
:10342000002B01D000F046F900BF80BD3C03002016
:10343000003800400077010080B500AF134B144AFC
:103440001A60124B4FF400725A60104B00229A60BF
:103450000E4B0022DA600D4B4FF400721A610B4BD9
:103460004BF680325A61094B00229A61074B0022C9
:10347000DA61064B00221A62044801F0FBFE0346A3
:10348000002B01D000F016F900BF80BD840300209E
:10349000003C004080B500AF174B184A1A60164B2D
:1034A0004FF482725A60144B00229A60124B002231
:1034B000DA60114B00221A610F4B00225A610E4B49
:1034C0004FF400729A610C4B0022DA610A4B002221
:1034D0001A62094B00225A62074B00229A62064B7D
:1034E0000A22DA62044804F0E1FC0346002B01D012
:1034F00000F0E0F800BF80BDCC03002000300140A8
:1035000080B58CB000AF07F11C0300221A605A602E
:103510009A60DA601A610023BB61614B1B6B604AE1
:1035200043F0100313635E4B1B6B03F01003BB618E
:10353000BB6900237B615A4B1B6B594A43F0040360
:103540001363574B1B6B03F004037B617B69002300
:103550003B61534B1B6B524A43F080031363504B48
:103560001B6B03F080033B613B690023FB604C4B0A
:103570001B6B4B4A43F001031363494B1B6B03F076
:103580000103FB60FB680023BB60454B1B6B444A97
:1035900043F002031363424B1B6B03F00203BB6057
:1035A000BB6800237B603E4B1B6B3D4A43F0080326
:1035B00013633B4B1B6B03F008037B607B680022AB
:1035C0000821384800F07CFE01220121364800F035
:1035D00077FE00224FF21001344800F071FE042300
:1035E000FB6100233B6200237B6207F11C03194649
:1035F0002C4800F0C9FC0823FB6101233B62002337
:103600007B620023BB6207F11C031946254800F0CA
:10361000BBFC3223FB614FF490133B6200237B62BF
:1036200007F11C0319461F4800F0AEFC0123FB61A3
:1036300001233B6200237B620023BB6207F11C0372
:103640001946194800F0A0FC0123FB614FF49013C8
:103650003B6200237B6207F11C031946144800F00B
:1036600093FC4FF21003FB6101233B6200237B625A
:103670000023BB6207F11C0319460C4800F084FCD0
:103680002023FB6100233B6200237B6207F11C03C4
:103690001946064800F078FC00BF3037BD4680BDB3
:1036A000003802400010024000080240000C0240B6
:1036B0000000024080B400AF72B600BFFEE7000019
:1036C00080B582B000AF00237B60104B5B6C0F4A6B
:1036D00043F4804353640D4B5B6C03F480437B6085
:1036E0007B6800233B60094B1B6C084A43F0805306
:1036F0001364064B1B6C03F080533B603B68072050
:1037000000F000FC00BF0837BD4680BD0038024015
:1037100080B58AB000AF786007F1140300221A6008
:103720005A609A60DA601A617B681B68194A934292
:103730002CD100233B61184B1B6B174A43F002034B
:103740001363154B1B6B03F002033B613B694FF4A2
:1037500010737B611223BB610123FB6100233B6279
:1037600004237B6207F1140319460C4800F00CFC9B
:103770000023FB60084B1B6C074A43F400131364DF
:10378000054B1B6C03F40013FB60FB6800BF28377C
:10379000BD4680BD00540040003802400004024095
:1037A00080B58EB000AF786007F1240300221A6064
:1037B0005A609A60DA601A617B681B68594A9342C2
:1037C0005BD100233B62584B1B6C574A43F4804348
:1037D0001364554B1B6C03F480433B623B6A00232C
:1037E000FB61514B1B6B504A43F0040313634E4B78
:1037F0001B6B03F00403FB61FB690023BB614A4BB5
:103800001B6B494A43F002031363474B1B6B03F0E6
:103810000203BB61BB6904237B620223BB620023FA
:10382000FB6200233B6306237B6307F124031946F5
:103830003E4800F0A9FB08237B620223BB62002301
:10384000FB6200233B6305237B6307F124031946D6
:10385000364800F099FB4FF4A0537B620223BB6211
:103860000023FB6200233B6305237B6307F12403F2
:1038700019462F4800F088FB4FE07B681B682D4AF3
:1038800093424AD100237B61274B1B6C264A43F4A9
:1038900000431364244B1B6C03F400437B617B697E
:1038A00000233B61204B1B6B1F4A43F00103136352
:1038B0001D4B1B6B03F001033B613B690023FB6065
:1038C000194B1B6B184A43F004031363164B1B6B15
:1038D00003F00403FB60FB6810237B620223BB62DE
:1038E0000023FB6200233B6306237B6307F1240371
:1038F0001946114800F048FB4FF4A4537B620223A1
:10390000BB620023FB6200233B6306237B6307F15A
:1039100024031946054800F037FB00BF3837BD4681
:1039200080BD00BF0038004000380240000802405F
:1039300000040240003C00400000024080B58AB014
:1039400000AF786007F1140300221A605A609A6091
:10395000DA601A617B681B68194A93422BD10023F5
:103960003B61184B5B6C174A43F480535364154B0F
:103970005B6C03F480533B613B690023FB60114B9C
:103980001B6B104A43F0010313630E4B1B6B03F0D8
:103990000103FB60FB68E0237B610223BB61002322
:1039A000FB6103233B6205237B6207F11403194685
:1039B000054800F0E9FA00BF2837BD4680BD00BFCA
:1039C00000300140003802400000024080B400AFE7
:1039D000FEE780B400AFFEE780B400AFFEE780B43E
:1039E00000AFFEE780B400AFFEE780B400AF00BFD9
:1039F000BD465DF8047B704780B400AF00BFBD4694
:103A00005DF8047B704780B400AF00BFBD465DF831
:103A1000047B704780B500AF00F060F900BF80BD47
:103A200080B500AF024802F03FFB00BF80BD00BF81
:103A30007019002080B400AF01231846BD465DF820
:103A4000047B704780B582B000AF7860396008F0C1
:103A500007FC034616221A604FF0FF33184608375A
:103A6000BD4680BD80B582B000AF78604FF0FF31B9
:103A70007868FFF7E7FFFEE780B586B000AFF86033
:103A8000B9607A6000237B610AE0AFF300800146F1
:103A9000BB685A1CBA60CAB21A707B6901337B6179
:103AA0007A697B689A42F0DB7B6818461837BD4616
:103AB00080BD80B586B000AFF860B9607A60002341
:103AC0007B6109E0BB685A1CBA601B781846AFF3EB
:103AD00000807B6901337B617A697B689A42F1DB04
:103AE0007B6818461837BD4680BD80B483B000AFF0
:103AF00078604FF0FF3318460C37BD465DF8047B05
:103B0000704780B483B000AF786039603B684FF491
:103B100000525A60002318460C37BD465DF8047BFE
:103B2000704780B483B000AF7860012318460C372B
:103B3000BD465DF8047B704780B485B000AFF86087
:103B4000B9607A60002318461437BD465DF8047BDF
:103B50007047000080B586B000AF7860144A154BFE
:103B6000D31A7B617B693B61134B1B68002B02D12D
:103B7000114B124A1A60104B1A687B6813443A6959
:103B80009A4207D208F06CFB03460C221A604FF0F1
:103B9000FF3309E0084B1B68FB60074B1A687B6822
:103BA0001344054A1360FB6818461837BD4680BDAC
:103BB000000002200004000024040020B0200020A7
:103BC00080B400AF064BD3F88830054A43F4700345
:103BD000C2F8883000BFBD465DF8047B704700BF67
:103BE00000ED00E0DFF834D00D480E490E4A002306
:103BF00002E0D458C4500433C4188C42F9D30B4AA1
:103C00000B4C002301E013600432A242FBD3FFF708
:103C1000D7FF08F02BFBFDF76BFA7047000002207E
:103C200000000020CC020020CC000108CC020020C3
:103C3000AC200020FEE7000080B500AF0E4B1B68F3
:103C40000D4A43F4007313600B4B1B680A4A43F49C
:103C500080631360084B1B68074A43F4807313604A
:103C6000032000F04FF9002000F008F8FFF728FDCE
:103C70000023184680BD00BF003C024080B582B0E2
:103C800000AF7860124B1A68124B1B7819464FF43C
:103C90007A73B3FBF1F3B2FBF3F3184600F067F964
:103CA0000346002B01D001230EE07B680F2B0AD8BE
:103CB000002279684FF0FF3000F02FF9064A7B6848
:103CC0001360002300E0012318460837BD4680BD7D
:103CD00000000020080000200400002080B400AF95
:103CE000064B1B781A46064B1B681344044A1360A4
:103CF00000BFBD465DF8047B704700BF0800002090
:103D00002804002080B400AF034B1B681846BD4652
:103D10005DF8047B704700BF2804002080B584B0A4
:103D200000AF7860FFF7EEFFB8607B68FB60FB6870
:103D3000B3F1FF3F05D00A4B1B781A46FB681344CA
:103D4000FB6000BFFFF7DEFF0246BB68D31AFA68CC
:103D50009A42F7D800BF00BF1037BD4680BD00BFF4
:103D60000800002080B485B000AF78607B6803F065
:103D70000703FB600C4BDB68BB60BA684FF6FF03C0
:103D80001340BB60FB681A02BB68134343F0BF6378
:103D900043F40033BB60044ABB68D36000BF1437F0
:103DA000BD465DF8047B704700ED00E080B400AFD5
:103DB000044BDB681B0A03F007031846BD465DF899
:103DC000047B704700ED00E080B483B000AF034691
:103DD000FB7197F90730002B0BDBFB7903F01F0217
:103DE000074997F907305B09012000FA02F241F810
:103DF000232000BF0C37BD465DF8047B704700BF31
:103E000000E100E080B483B000AF03463960FB718D
:103E100097F90730002B0ADB3B68DAB20C4997F9B7
:103E200007301201D2B20B4483F800230AE03B684A
:103E3000DAB20849FB7903F00F03043B1201D2B256
:103E40000B441A7600BF0C37BD465DF8047B704703
:103E500000E100E000ED00E080B489B000AFF86060
:103E6000B9607A60FB6803F00703FB61FB69C3F18B
:103E70000703042B28BF0423BB61FB690433062B13
:103E800002D9FB69033B00E000237B614FF0FF3266
:103E9000BB6902FA03F3DA43BB681A407B699A40B4
:103EA0004FF0FF317B6901FA03F3D9437B680B4084
:103EB000134318462437BD465DF8047B7047000065
:103EC00080B582B000AF78607B68013BB3F1807F42
:103ED00001D301230FE00A4A7B68013B53600F21A5
:103EE0004FF0FF30FFF78EFF054B00229A60044B26
:103EF00007221A60002318460837BD4680BD00BF60
:103F000010E000E080B582B000AF78607868FFF71D
:103F100029FF00BF0837BD4680BD80B586B000AF21
:103F20000346B9607A60FB7300237B61FFF73EFFB5
:103F300078617A68B9687869FFF78EFF024697F969
:103F40000F3011461846FFF75DFF00BF1837BD461A
:103F500080BD80B582B000AF0346FB7197F9073092
:103F60001846FFF731FF00BF0837BD4680BD80B55A
:103F700082B000AF78607868FFF7A2FF034618466A
:103F80000837BD4680BD000080B489B000AF7860BE
:103F9000396000237B6100233B610023BB61002368
:103FA000FB6159E10122FB6902FA03F37B613B6883
:103FB0001B687A6913403B613A697B699A4240F019
:103FC00048813B685B6803F00303012B05D03B6825
:103FD0005B6803F00303022B30D17B689B68BB61F5
:103FE000FB695B00032202FA03F3DB43BA69134067
:103FF000BB613B68DA68FB695B0002FA03F3BA69EC
:104000001343BB617B68BA699A607B685B68BB617C
:104010000122FB6902FA03F3DB43BA691340BB6177
:104020003B685B681B0903F00102FB6902FA03F3BA
:10403000BA691343BB617B68BA695A603B685B68C5
:1040400003F00303032B17D07B68DB68BB61FB69BC
:104050005B00032202FA03F3DB43BA691340BB613E
:104060003B689A68FB695B0002FA03F3BA69134381
:10407000BB617B68BA69DA603B685B6803F0030385
:10408000022B23D1FB69DA087B68083253F822300F
:10409000BB61FB6903F007039B000F2202FA03F3E5
:1040A000DB43BA691340BB613B681A69FB6903F0E3
:1040B00007039B0002FA03F3BA691343BB61FB6970
:1040C000DA087B680832B96943F822107B681B68FC
:1040D000BB61FB695B00032202FA03F3DB43BA69AD
:1040E0001340BB613B685B6803F00302FB695B0044
:1040F00002FA03F3BA691343BB617B68BA691A60B9
:104100003B685B6803F44033002B00F0A28000237F
:10411000FB60574B5B6C564A43F480435364544BEB
:104120005B6C03F48043FB60FB68524AFB699B08AD
:10413000023352F82330BB61FB6903F003039B0099
:104140000F2202FA03F3DB43BA691340BB617B68B9
:10415000494A934219D07B68484A934213D07B68FE
:10416000474A93420DD07B68464A934207D07B680A
:10417000454A934201D1042308E0072306E00323C4
:1041800004E0022302E0012300E00023FA6902F0C8
:10419000030292009340BA691343BB613549FB693E
:1041A0009B080233BA6941F82320384B9B68BB61F6
:1041B0003B69DB43BA691340BB613B685B6803F44E
:1041C0008013002B03D0BA693B691343BB612F4AAC
:1041D000BB6993602D4BDB68BB613B69DB43BA690C
:1041E0001340BB613B685B6803F40013002B03D0F2
:1041F000BA693B691343BB61244ABB69D360234B53
:104200005B68BB613B69DB43BA691340BB613B68D8
:104210005B6803F40033002B03D0BA693B69134396
:10422000BB611A4ABB695360184B1B68BB613B6991
:10423000DB43BA691340BB613B685B6803F48033BE
:10424000002B03D0BA693B691343BB610F4ABB69BA
:104250001360FB690133FB61FB690F2B7FF6A2AE94
:1042600000BF00BF2437BD465DF8047B704700BF28
:1042700000380240003801400000024000040240C3
:1042800000080240000C024000100240003C0140C7
:1042900080B485B000AF78600B467B807B681A697C
:1042A0007B881340002B02D00123FB7301E0002325
:1042B000FB73FB7B18461437BD465DF8047B7047E3
:1042C00080B483B000AF78600B467B8013467B7070
:1042D0007B78002B03D07A887B689A6103E07B8827
:1042E0001A047B689A6100BF0C37BD465DF8047BF9
:1042F0007047000080B584B000AF78607B68002B09
:1043000001D101232BE17B6893F83D30DBB2002B18
:1043100006D17B68002283F83C207868FFF7F8F923
:104320007B68242283F83D207B681B681A687B68C1
:104330001B6822F001021A607B681B681A687B68A0
:104340001B6842F400421A607B681B681A687B682D
:104350001B6822F400421A6003F044FCF8607B689A
:104360005B68814A934207D8FB68804A934294BFB6
:1043700001230023DBB206E0FB687D4A934294BF31
:1043800001230023DBB2002B01D00123E7E0FB680F
:10439000784AA2FB03239B0CBB607B681B685B68AD
:1043A00023F03F017B681B68BA680A435A607B6848
:1043B0001B681B6A23F03F017B685B686A4A934273
:1043C00002D8BB68013309E0BB684FF4967202FB68
:1043D00003F3694AA2FB03239B0901337A6812683D
:1043E0000B4313627B681B68DB6923F44F4222F0A6
:1043F000FF027B685B685C498B4219D8FB68591ED9
:104400007B685B685B00B1FBF3F3591C40F6FC73FF
:104410000B40002B0AD0FB68591E7B685B685B0071
:10442000B1FBF3F30133C3F30B0351E004234FE07B
:104430007B689B68002B11D1FB68581E7B6859680C
:104440000B465B000B44B0FBF3F30133C3F30B03E8
:10445000002B0CBF01230023DBB212E0FB68581EC7
:104460007B6859680B469B000B4499000B44B0FBDA
:10447000F3F30133C3F30B03002B0CBF0123002321
:10448000DBB2002B01D0012322E07B689B68002B6C
:104490000ED1FB68581E7B6859680B465B000B44C5
:1044A000B0FBF3F30133C3F30B0343F400430FE01A
:1044B000FB68581E7B6859680B469B000B449900AB
:1044C0000B44B0FBF3F30133C3F30B0343F440435A
:1044D000796809681343CB617B681B681B6823F00C
:1044E000C0017B68DA697B681B6A1A437B681B68BA
:1044F0000A431A607B681B689B6823F4034323F01C
:10450000FF037A6811697A68D26811437A68126881
:104510000B4393607B681B68DB6823F0FF017B68BB
:104520005A697B689B691A437B681B680A43DA6097
:104530007B681B681A687B681B6842F001021A607E
:104540007B6800221A647B68202283F83D207B6808
:1045500000221A637B68002283F83E20002318465D
:104560001037BD4680BD00BFA08601007F841E00BD
:10457000FF083D0083DE1B43D34D621080B588B039
:1045800002AFF860084611461A4603467B810B4687
:104590003B811346FB80FFF7B5FB7861FB6893F81E
:1045A0003D30DBB2202B40F0D9807B69009319238A
:1045B00001226D49F86800F07FFC0346002B01D012
:1045C0000223CCE0FB6893F83C30012B01D102239D
:1045D000C5E0FB68012283F83C20FB681B681B6870
:1045E00003F00103012B07D0FB681B681A68FB6806
:1045F0001B6842F001021A60FB681B681A68FB68BE
:104600001B6822F400621A60FB68212283F83D20B7
:10461000FB68402283F83E20FB6800221A64FB6896
:104620003A6A5A62FB68BA8C5A85FB685B8D9AB20B
:10463000FB681A85FB684D4ADA62F8883A897989FD
:104640007B690193BB6A00930346F86800F0B6FAF1
:104650000346002B52D0012381E07A69B96AF868D9
:1046600000F000FD0346002B0DD0FB681B6C042BF3
:1046700007D1FB681B681A68FB681B6842F400726C
:104680001A6001236BE0FB685B6A1A78FB681B68A1
:104690001A61FB685B6A5A1CFB685A62FB681B8DD7
:1046A000013B9AB2FB681A85FB685B8D9BB2013BAC
:1046B0009AB2FB685A85FB681B685B6903F00403C8
:1046C000042B1BD1FB681B8D002B17D0FB685B6A8A
:1046D0001A78FB681B681A61FB685B6A5A1CFB68E6
:1046E0005A62FB681B8D013B9AB2FB681A85FB6816
:1046F0005B8D9BB2013B9AB2FB685A85FB681B8DB0
:10470000002BAAD17A69B96AF86800F0ECFC03467C
:10471000002B0DD0FB681B6C042B07D1FB681B68BA
:104720001A68FB681B6842F400721A60012316E0E5
:10473000FB681B681A68FB681B6842F400721A6009
:10474000FB68202283F83D20FB68002283F83E208E
:10475000FB68002283F83C20002300E00223184677
:104760001837BD4680BD00BF020010000000FFFFEB
:1047700080B58CB002AFF860084611461A46034671
:104780007B810B463B811346FB80FFF7BBFA7862C7
:10479000FB6893F83D30DBB2202B40F008827B6A47
:1047A0000093192301227B49F86800F085FB03463A
:1047B000002B01D00223FBE1FB6893F83C30012B76
:1047C00001D10223F4E1FB68012283F83C20FB685D
:1047D0001B681B6803F00103012B07D0FB681B68F3
:1047E0001A68FB681B6842F001021A60FB681B68CC
:1047F0001A68FB681B6822F400621A60FB682222B8
:1048000083F83D20FB68402283F83E20FB680022AD
:104810001A64FB683A6B5A62FB68BA8E5A85FB6869
:104820005B8D9AB2FB681A85FB685B4ADA62F8888E
:104830003A8979897B6A0193BB6B00930346F868D8
:1048400000F052FA0346002B01D00123B0E1FB68CF
:104850001B8D002B13D100233B62FB681B685B6937
:104860003B62FB681B689B693B623B6AFB681B6899
:104870001A68FB681B6842F400721A6084E1FB68E6
:104880001B8D012B1BD1FB681B681A68FB681B681A
:1048900022F480621A600023FB61FB681B685B697D
:1048A000FB61FB681B689B69FB61FB69FB681B681C
:1048B0001A68FB681B6842F400721A6064E1FB68C6
:1048C0001B8D022B1BD1FB681B681A68FB681B68D9
:1048D00022F480621A60FB681B681A68FB681B6818
:1048E00042F400621A600023BB61FB681B685B69CD
:1048F000BB61FB681B689B69BB61BB6944E100232A
:104900007B61FB681B685B697B61FB681B689B695B
:104910007B617B6938E1FB681B8D032B00F2F18022
:10492000FB681B8D012B23D17A6AB96BF86800F004
:104930001BFC0346002B01D0012339E1FB681B68F7
:104940001A69FB685B6AD2B21A70FB685B6A5A1C10
:10495000FB685A62FB681B8D013B9AB2FB681A85A3
:10496000FB685B8D9BB2013B9AB2FB685A850BE1F9
:10497000FB681B8D022B4ED17B6A0093BB6B002220
:104980000649F86800F098FA0346002B08D0012386
:104990000EE100BF020010000000FFFF0400010054
:1049A000FB681B681A68FB681B6842F400721A6097
:1049B000FB681B681A69FB685B6AD2B21A70FB68F5
:1049C0005B6A5A1CFB685A62FB681B8D013B9AB2FA
:1049D000FB681A85FB685B8D9BB2013B9AB2FB6852
:1049E0005A85FB681B681A69FB685B6AD2B21A7049
:1049F000FB685B6A5A1CFB685A62FB681B8D013BB3
:104A00009AB2FB681A85FB685B8D9BB2013B9AB238
:104A1000FB685A85B8E07B6A0093BB6B002266494D
:104A2000F86800F049FA0346002B01D00123BFE0EB
:104A3000FB681B681A68FB681B6822F480621A60B6
:104A4000FB681B681A69FB685B6AD2B21A70FB6864
:104A50005B6A5A1CFB685A62FB681B8D013B9AB269
:104A6000FB681A85FB685B8D9BB2013B9AB2FB68C1
:104A70005A857B6A0093BB6B00224F49F86800F0AF
:104A80001BFA0346002B01D0012391E0FB681B6851
:104A90001A68FB681B6842F400721A60FB681B68A6
:104AA0001A69FB685B6AD2B21A70FB685B6A5A1CAF
:104AB000FB685A62FB681B8D013B9AB2FB681A8542
:104AC000FB685B8D9BB2013B9AB2FB685A85FB6821
:104AD0001B681A69FB685B6AD2B21A70FB685B6A72
:104AE0005A1CFB685A62FB681B8D013B9AB2FB683B
:104AF0001A85FB685B8D9BB2013B9AB2FB685A85B5
:104B000042E07A6AB96BF86800F02EFB0346002B8E
:104B100001D001234CE0FB681B681A69FB685B6AE3
:104B2000D2B21A70FB685B6A5A1CFB685A62FB6857
:104B30001B8D013B9AB2FB681A85FB685B8D9BB2AB
:104B4000013B9AB2FB685A85FB681B685B6903F0FE
:104B50000403042B18D1FB681B681A69FB685B6AA5
:104B6000D2B21A70FB685B6A5A1CFB685A62FB6817
:104B70001B8D013B9AB2FB681A85FB685B8D9BB26B
:104B8000013B9AB2FB685A85FB681B8D002B7FF4B2
:104B9000C2AEFB68202283F83D20FB68002283F828
:104BA0003E20FB68002283F83C20002300E0022323
:104BB00018462837BD4680BD0400010080B588B086
:104BC00002AFF860084611461A4603467B810B4641
:104BD0003B811346FB80FB681B681A68FB681B68F7
:104BE00042F480721A607B6A00933B6A00224FF0A5
:104BF0000111F86800F060F90346002B0DD0FB6846
:104C00001B681B6803F48073B3F5807F03D1FB68D6
:104C10004FF400721A6403235FE07B89DBB21A460B
:104C2000FB681B6802F0FE021A617B6A3A6A2D4932
:104C3000F86800F098F90346002B01D001234CE0FE
:104C400000237B61FB681B685B697B61FB681B68F9
:104C50009B697B617B697A6A396AF86800F002FABD
:104C60000346002B0DD0FB681B6C042B07D1FB689F
:104C70001B681A68FB681B6842F400721A60012303
:104C80002BE0FB88012B05D13B89DAB2FB681B685E
:104C90001A6121E03B891B0A9BB2DAB2FB681B68F0
:104CA0001A617A6A396AF86800F0DCF90346002B69
:104CB0000DD0FB681B6C042B07D1FB681B681A68BE
:104CC000FB681B6842F400721A60012305E03B890F
:104CD000DAB2FB681B681A61002318461837BD4614
:104CE00080BD00BF0200010080B588B002AFF8604F
:104CF000084611461A4603467B810B463B81134604
:104D0000FB80FB681B681A68FB681B6842F48062C2
:104D10001A60FB681B681A68FB681B6842F48072A3
:104D20001A607B6A00933B6A00224FF00111F86819
:104D300000F0C2F80346002B0DD0FB681B681B680F
:104D400003F48073B3F5807F03D1FB684FF40072E6
:104D50001A640323AAE07B89DBB21A46FB681B684E
:104D600002F0FE021A617B6A3A6A5249F86800F062
:104D7000FAF80346002B01D0012397E000237B6162
:104D8000FB681B685B697B61FB681B689B697B61D7
:104D90007B697A6A396AF86800F064F90346002B87
:104DA0000DD0FB681B6C042B07D1FB681B681A68CD
:104DB000FB681B6842F400721A60012376E0FB88EE
:104DC000012B05D13B89DAB2FB681B681A6121E02F
:104DD0003B891B0A9BB2DAB2FB681B681A617A6ACC
:104DE000396AF86800F03EF90346002B0DD0FB68E5
:104DF0001B6C042B07D1FB681B681A68FB681B68D7
:104E000042F400721A60012350E03B89DAB2FB6879
:104E10001B681A617A6A396AF86800F023F9034658
:104E2000002B0DD0FB681B6C042B07D1FB681B68A3
:104E30001A68FB681B6842F400721A60012335E0AF
:104E4000FB681B681A68FB681B6842F480721A6072
:104E50007B6A00933B6A00224FF00111F86800F072
:104E60002BF80346002B0DD0FB681B681B6803F46E
:104E70008073B3F5807F03D1FB684FF400721A642E
:104E8000032313E07B89DBB243F00103DAB2FB6852
:104E90001B681A617B6A3A6A0649F86800F063F891
:104EA0000346002B01D0012300E0002318461837E9
:104EB000BD4680BD0200010080B584B000AFF8603F
:104EC000B9603B601346FB7125E03B68B3F1FF3FDF
:104ED00021D0FEF717FF0246BB69D31A3A689A42FF
:104EE00002D33B68002B16D1FB6800221A63FB68D3
:104EF000202283F83D20FB68002283F83E20FB68D7
:104F00001B6C43F02002FB681A64FB68002283F8E4
:104F10003C20012323E0BB681B0CDBB2012B0DD12D
:104F2000FB681B685B69DA43BB6813409BB2002BCC
:104F30000CBF01230023DBB21A460CE0FB681B68A0
:104F40009B69DA43BB6813409BB2002B0CBF012363
:104F50000023DBB21A46FB799A42B6D000231846EA
:104F60001037BD4680BD80B584B000AFF860B96031
:104F70007A603B6051E0FB681B685B6903F4806307
:104F8000B3F5806F23D1FB681B681A68FB681B6848
:104F900042F400721A60FB681B686FF480625A6109
:104FA000FB6800221A63FB68202283F83D20FB681F
:104FB000002283F83E20FB681B6C43F00402FB6870
:104FC0001A64FB68002283F83C20012346E07B68DA
:104FD000B3F1FF3F21D0FEF795FE02463B68D31A9E
:104FE0007A689A4202D37B68002B16D1FB680022B4
:104FF0001A63FB68202283F83D20FB68002283F8B7
:105000003E20FB681B6C43F02002FB681A64FB68BF
:10501000002283F83C20012320E0BB681B0CDBB29C
:10502000012B0CD1FB681B685B69DA43BB6813403A
:105030009BB2002B14BF01230023DBB20BE0FB6803
:105040001B689B69DA43BB6813409BB2002B14BFFB
:1050500001230023DBB2002B8DD10023184610372B
:10506000BD4680BD80B584B000AFF860B9607A609D
:105070002DE0F86800F0CEF80346002B01D00123A4
:105080002DE0BB68B3F1FF3F21D0FEF73BFE0246A7
:105090007B68D31ABA689A4202D3BB68002B16D138
:1050A000FB6800221A63FB68202283F83D20FB681E
:1050B000002283F83E20FB681B6C43F02002FB6853
:1050C0001A64FB68002283F83C20012307E0FB6898
:1050D0001B685B6903F08003802BCAD1002318464C
:1050E0001037BD4680BD80B584B000AFF860B960B0
:1050F0007A602DE0F86800F08DF80346002B01D0AF
:1051000001232DE0BB68B3F1FF3F21D0FEF7FAFD8C
:1051100002467B68D31ABA689A4202D3BB68002B56
:1051200016D1FB6800221A63FB68202283F83D2019
:10513000FB68002283F83E20FB681B6C43F02002D2
:10514000FB681A64FB68002283F83C20012307E017
:10515000FB681B685B6903F00403042BCAD10023BE
:1051600018461037BD4680BD80B584B000AFF860EA
:10517000B9607A6042E0FB681B685B6903F010036A
:10518000102B19D1FB681B686FF010025A61FB6885
:1051900000221A63FB68202283F83D20FB6800226E
:1051A00083F83E20FB681A6CFB681A64FB680022D7
:1051B00083F83C20012329E0FEF7A4FD02467B682A
:1051C000D31ABA689A4202D3BB68002B16D1FB6887
:1051D00000221A63FB68202283F83D20FB6800222E
:1051E00083F83E20FB681B6C43F02002FB681A64C6
:1051F000FB68002283F83C20012307E0FB681B6862
:105200005B6903F04003402BB5D1002318461037EB
:10521000BD4680BD80B483B000AF78607B681B68FA
:105220005B6903F48063B3F5806F1BD17B681B68F7
:105230006FF480625A617B6800221A637B682022C7
:1052400083F83D207B68002283F83E207B681B6C3E
:1052500043F004027B681A647B68002283F83C20D8
:10526000012300E0002318460C37BD465DF8047B9F
:105270007047000080B588B000AF78607B68002B75
:1052800001D1012328E17B6893F84130DBB2002B88
:1052900009D17B68002283F840207B68904A5A63DA
:1052A0007868FEF77DFA7B68022283F841207B68EC
:1052B0001B68DB697A68126823F47B6323F00F03B1
:1052C000D3617B681B6802221A627B685B69022BD0
:1052D00060D07B68DB68002B02D110237B6101E08A
:1052E00020237B617B689B68202B02D87B695B0055
:1052F0007B61012002F07AFDF8607B681B69B3F5E1
:10530000007F25D17B68DB68002B10D07B699B0078
:10531000FA68B2FBF3F213469B0013445B001A4693
:105320007B685B69B2FBF3F305333B611FE07B698C
:10533000DB00FA68B2FBF3F213469B0013445B00F8
:105340001A467B685B69B2FBF3F305333B610EE001
:10535000FA687B69B2FBF3F213469B0013445B00CF
:105360001A467B685B69B2FBF3F305333B613B692B
:105370005C4AA2FB0323DB083B613B6903F00103AA
:10538000BB613A69BB69D31A5B08FB61BB691B024D
:10539000BB6103E00223FB610023BB61FB69012BBE
:1053A00002D9FB69FF2B07D97B685B6C43F01002C5
:1053B0007B685A6401238FE07B681A69BB6942EA03
:1053C00003017B681B68FA690A431A627B681B68E1
:1053D000DB6923F47B6323F00F037A6851687A68F2
:1053E000926811437A68D26811437A6892690A43D5
:1053F0001A437B681B6842F40062DA617B681B6AAF
:10540000012B61D17B68384A5A637B681B68374A35
:10541000934201D1364B01E04FF04023DB697A68BB
:10542000126832498A4201D1314A01E04FF04022EC
:1054300023F47B6323F00F03D3617B681B682B4A43
:10544000934201D12A4B01E04FF0402302221A621D
:105450007B681B68254A934201D1254B01E04FF040
:105460004023DB697B817B685B68B3F5007F03D0F9
:105470007B685B68002B03D14FF480733B6101E0D4
:1054800000233B613B699AB27B689B689BB21343E4
:105490009AB27B68DB689BB213439AB27B689B69C4
:1054A0009BB213439AB27B8913439BB243F40063CC
:1054B0007B817B681B680D4A934201D10C4B01E054
:1054C0004FF040237A89DA617B6800225A647B6856
:1054D000012283F84120002318462037BD4680BDB5
:1054E000CD570008CDCCCCCC555900080038004031
:1054F0000034004080B586B000AFF860B9603B6012
:105500001346FB80BB68002B02D0FB88002B01D127
:105510000123DCE0FB6893F84030DBB2012B01D1C2
:105520000223D4E0FB68012283F84020FB6893F853
:105530004130DBB2012B05D0FB68002283F840200C
:105540000223C4E0FB68032283F84120FB680022A9
:105550005A64FB68BA685A62FB681B68DB6903F02F
:1055600007037B617B69032B02D07B69052B0AD182
:10557000FB885B009AB2FB681A85FB885B009AB2D5
:10558000FB685A8505E0FB68FA881A85FB68FA888B
:105590005A85FB681B68DB697B61FB681B68DB69FC
:1055A00003F48063B3F5806F07D0FB681B68DA698A
:1055B000FB681B6842F48062DA613B6801220221C9
:1055C000F86800F08DF90346002B4ED0FB685B6C49
:1055D00043F00102FB685A64FB68012283F8412012
:1055E000FB68002283F84020012370E0FB685B6ABF
:1055F0001A88FB681B68DA60FB685B6A9A1CFB68A8
:105600005A62FB685B8D9BB2013B9AB2FB685A857C
:105610003B6801220221F86800F062F90346002B82
:105620000FD0FB685B6C43F00102FB685A64FB68B7
:10563000012283F84120FB68002283F840200123E7
:1056400045E0FB681B689B6803F00803082B0CD13E
:1056500000233B61FB681B689B683B613B69FB68FF
:105660005B6C43F00402FB685A64FB685B8D9BB281
:10567000002BBBD17B6903F44073002B05D07B6901
:1056800003F44073B3F5807F18D13B68002280217A
:10569000F86800F025F90346002B0FD0FB685B6C1F
:1056A00043F00102FB685A64FB68012283F8412041
:1056B000FB68002283F84020012308E0FB680122F8
:1056C00083F84120FB68002283F84020002318461D
:1056D0001837BD4680BD80B483B000AF786000BF8E
:1056E0000C37BD465DF8047B704780B483B000AFD3
:1056F000786000BF0C37BD465DF8047B704780B40E
:1057000083B000AF786000BF0C37BD465DF8047B06
:10571000704780B582B000AF78607B685B6A1A889A
:105720007B681B68DA607B685B6A9A1C7B685A62DC
:105730007B685B8D9BB2013B9AB27B685A857B6824
:105740005B8D9BB2002B0ED17B681B685A687B680F
:105750001B6822F0A0025A607B68012283F8412076
:105760007868FFF7B8FF00BF0837BD4680BD80B539
:1057700082B000AF78607B681B68DA687B68DB6AA0
:1057800092B21A807B68DB6A9A1C7B68DA627B685B
:105790005B8E9BB2013B9AB27B685A867B685B8EBC
:1057A0009BB2002B0ED17B681B685A687B681B6814
:1057B00022F060025A607B68012283F841207868F9
:1057C000FFF793FF00BF0837BD4680BD80B586B0A8
:1057D00000AF78607B681B689B687B617B6893F88F
:1057E0004130DBB2042B3AD17B6903F00103012B7A
:1057F00009D17B681B685B6803F04003402B02D132
:105800007868FFF7B4FF7B6903F04003402B26D193
:105810007B681B685B6803F02003202B1FD17B682B
:105820001B685A687B681B6822F060025A6000237C
:105830003B617B681B68DB683B617B681B689B681E
:105840003B613B697B68012283F841207B685B6C8C
:1058500043F002027B685A647868FFF750FF7B6868
:1058600093F84130DBB2032B36D17B6903F002039E
:10587000022B09D17B681B685B6803F08003802BD7
:1058800002D17868FFF745FF7B6903F00803082B16
:1058900022D17B681B685B6803F02003202B1BD19F
:1058A0007B681B685A687B681B6822F0A0025A60FC
:1058B0000023FB607B681B689B68FB60FB687B6860
:1058C000012283F841207B685B6C43F004027B6813
:1058D0005A647868FFF713FF00BF1837BD4680BDD4
:1058E00080B586B000AFF860B9603B601346FB71CD
:1058F000FEF708FA786118E03B68B3F1FF3F14D077
:10590000FEF700FA02467B69D31A3A689A4202D936
:105910003B68002B09D1FB68012283F84120FB681A
:10592000002283F8402003230FE0FB681B689A687D
:10593000BB681340BA689A420CBF01230023DBB254
:105940001A46FB799A42D7D1002318461837BD462C
:1059500080BD000080B588B000AF78607B681B68B0
:105960009B68FB617B681B68924A934201D1924B12
:1059700001E04FF040239B68BB617B681B685B685C
:105980007B617B681B688B4A934201D18A4B01E0A3
:105990004FF040235B683B617B685B68B3F5007F39
:1059A00004D07B685B68002B40F09980FB6903F0B2
:1059B0000203022B07D17B6903F08003002B02D086
:1059C000786800F025F9BB6903F00103012B07D1CA
:1059D0003B6903F04003002B02D0786800F0C8F95F
:1059E000BB6903F04003402B3AD13B6903F020032D
:1059F000002B35D07B681B686E4A934201D16E4BF9
:105A000001E04FF040235A687B681B6869498B426C
:105A100001D1694B01E04FF0402322F060025A604F
:105A20007B681B685A687B681B6822F0A0025A607A
:105A30000023FB607B681B68DB68FB607B681B687E
:105A40009B68FB60FB687B68012283F841207B68D0
:105A50005B6C43F002027B685A647868FFF74FFE84
:105A6000FB6903F00803082B40F0C3807B6903F057
:105A70002003002B00F0BD807B681B685A687B68A0
:105A80001B6822F0A0025A607B681B68494A934257
:105A900001D1494B01E04FF040235A687B681B68F5
:105AA00044498B4201D1444B01E04FF0402322F0A6
:105AB00060025A600023BB607B681B689B68BB6008
:105AC000BB687B68012283F841207B685B6C43F0F4
:105AD00004027B685A647868FFF711FE89E0BB69AD
