:020000040800F2
:10000000000002201D0F0008910E0008970E000846
:100010009D0E0008A30E0008A90E000800000000B5
:10002000000000000000000000000000AF0E00080B
:10003000BD0E000800000000CB0E0008D90E00081D
:100040006D0F00086D0F00086D0F00086D0F0008A0
:100050006D0F00086D0F00086D0F00086D0F000890
:100060006D0F00086D0F00086D0F00086D0F000880
:100070006D0F00086D0F00086D0F00086D0F000870
:100080006D0F00086D0F00086D0F000800000000E4
:100090000000000000000000000000006D0F0008DC
:1000A0006D0F00086D0F00086D0F00086D0F000840
:1000B0006D0F00086D0F00086D0F00086D0F000830
:1000C0006D0F00086D0F00086D0F00086D0F000820
:1000D0006D0F00086D0F00086D0F00080000000094
:1000E0006D0F00086D0F00086D0F00080000000084
:1000F0000000000000000000000000006D0F00087C
:10010000000000006D0F00086D0F00086D0F000863
:1001100000000000000000000000000000000000DF
:100120006D0F00086D0F00086D0F00086D0F0008BF
:100130006D0F00080000000000000000000000003B
:10014000000000000000000000000000E50E0008B4
:100150006D0F00086D0F00086D0F00086D0F00088F
:100160006D0F00086D0F0008000000000000000087
:10017000000000000000000000000000000000007F
:10018000000000006D0F00080000000000000000EB
:080190006D0F00086D0F00085F
:1001980010B5054C237833B9044B13B10448AFF3B9
:1001A80000800123237010BD1C0100200000000006
:1001B800787F000808B5034B1BB103490348AFF328
:1001C800008008BD0000000020010020787F0008A2
:1001D80053B94AB9002908BF00281CBF4FF0FF31A6
:1001E8004FF0FF3000F074B9ADF1080C6DE904CEA2
:1001F80000F006F8DDF804E0DDE9022304B07047FA
:100208002DE9F047089D04468E46002B4DD18A42C1
:10021800944669D9B2FA82F252B101FA02F3C2F1F4
:10022800200120FA01F10CFA02FC41EA030E944085
:100238004FEA1C48210CBEFBF8F61FFA8CF708FBA6
:1002480016E341EA034306FB07F199420AD91CEB7E
:10025800030306F1FF3080F01F81994240F21C81B0
:10026800023E63445B1AA4B2B3FBF8F008FB1033F8
:1002780044EA034400FB07F7A7420AD91CEB04042D
:1002880000F1FF3380F00A81A74240F207816444FD
:10029800023840EA0640E41B00261DB1D440002382
:1002A800C5E900433146BDE8F0878B4209D9002DE6
:1002B80000F0EF800026C5E9000130463146BDE870
:1002C800F087B3FA83F6002E4AD18B4202D38242DA
:1002D80000F2F980841A61EB030301209E46002D89
:1002E800E0D0C5E9004EDDE702B9FFDEB2FA82F2DE
:1002F800002A40F09280A1EB0C014FEA1C471FFA3C
:100308008CFE0126200CB1FBF7F307FB131140EA22
:1003180001410EFB03F0884208D91CEB010103F1EF
:10032800FF3802D2884200F2CB804346091AA4B2B1
:10033800B1FBF7F007FB101144EA01440EFB00FE85
:10034800A64508D91CEB040400F1FF3102D2A645EA
:1003580000F2BB800846A4EB0E0440EA03409CE789
:10036800C6F12007B34022FA07FC4CEA030C20FA36
:1003780007F401FA06F31C43F9404FEA1C4900FA56
:1003880006F3B1FBF9F8200C1FFA8CFE09FB1811D3
:1003980040EA014108FB0EF0884202FA06F20BD946
:1003A8001CEB010108F1FF3A80F08880884240F296
:1003B8008580A8F102086144091AA4B2B1FBF9F0DA
:1003C80009FB101144EA014100FB0EFE8E4508D9D5
:1003D8001CEB010100F1FF346CD28E456AD902385A
:1003E800614440EA0840A0FB0294A1EB0E01A1423F
:1003F800C846A64656D353D05DB1B3EB080261EBAD
:100408000E0101FA07F722FA06F3F1401F43C5E986
:10041800007100263146BDE8F087C2F12003D840BC
:100428000CFA02FC21FA03F3914001434FEA1C47FE
:100438001FFA8CFEB3FBF7F007FB10360B0C43EAF0
:10044800064300FB0EF69E4204FA02F408D91CEBA0
:10045800030300F1FF382FD29E422DD9023863449E
:100468009B1B89B2B3FBF7F607FB163341EA03413E
:1004780006FB0EF38B4208D91CEB010106F1FF388D
:1004880016D28B4214D9023E6144C91A46EA004684
:1004980038E72E46284605E70646E3E61846F8E616
:1004A8004B45A9D2B9EB020864EB0C0E0138A3E75F
:1004B8004646EAE7204694E74046D1E7D0467BE740
:1004C800023B614432E7304609E76444023842E7B8
:1004D800704700BF80B586B000AF00F045FD00F062
:1004E80023F900F089F900F069FA00F0A5F900F0A5
:1004F800D1F900F0FDF900F02BFA07F0D1F800234C
:100508007B610023FB740023FB6000237B600023D6
:100518003B720121814801F053F80346BB74BB7C50
:10052800002B02D00123FB74F3E7FB7C002BF0D0F7
:100538007B6901337B617B6903F00103002B00F0C9
:10054800968009237B73F723BB7307F10C030422FE
:100558001946734805F02AFD4FF40041714801F02F
:1005680060F8AF2000F072FD11237B730023BB738A
:1005780007F10C0304221946694805F017FD4FF4EA
:100588000041684801F04DF8AF2000F05FFD0923F5
:100598007B730823BB7307F10C03042219466048D8
:1005A80005F004FD4FF400415E4801F03AF8AF2031
:1005B80000F04CFD00237B731123BB7307F10C0380
:1005C80004221946564805F0F1FC4FF400415548FD
:1005D80001F027F8AF2000F039FDF7237B730823DB
:1005E800BB7307F10C03042219464D4805F0DEFCE5
:1005F8004FF400414B4801F014F8AF2000F026FDFD
:10060800EF237B730023BB7307F10C030422194605
:10061800434805F0CBFC4FF40041424801F001F893
:10062800AF2000F013FDF7237B73F823BB7307F1AA
:100638000C03042219463A4805F0B8FC4FF400416F
:10064800384800F0EEFFAF2000F000FD00237B7378
:10065800EF23BB7307F10C0304221946304805F059
:10066800A5FCAF2000F0F2FC0023FB7451E75D23EA
:100678007B730023BB7307F10C0304221946284837
:1006880005F094FCAF2000F0E1FC02233B713B1D18
:1006980005221946224805F089FCAF2000F0D6FC57
:1006A80000233B713B1D052219461D4805F07EFCC1
:1006B800AF2000F0CBFCFD23FB713B1D0522194642
:1006C800174805F073FCAF2000F0C0FC01237B71D4
:1006D8003B1D05221946124805F068FCAF2000F0C2
:1006E800B5FC00237B713B1D052219460C4805F01B
:1006F8005DFCAF2000F0AAFCA3237B730023BB732F
:1007080007F10C0304221946054805F04FFCAF20F9
:1007180000F09CFC0023FB74FBE600BF00000240D5
:100728007C020020000C024080B594B000AF07F1B5
:10073800200330220021184607F012FC07F10C03B1
:1007480000221A605A609A60DA601A610023BB605E
:10075800274B1B6C264A43F080531364244B1B6CB5
:1007680003F08053BB60BB6800237B60214B1B6890
:10077800204A43F4404313601E4B1B6803F4404374
:100788007B607B6801233B624FF480337B620223EA
:10079800BB634FF48003FB6304233B64C0237B6487
:1007A8000423BB640823FB6407F12003184602F006
:1007B8009DFF0346002B01D000F0DAF90F23FB6000
:1007C80002233B6100237B614FF4A053BB610023EC
:1007D800FB6107F10C030321184603F0FFF90346F8
:1007E800002B01D000F0C4F900BF5037BD4680BDD2
:1007F800003802400070004080B586B000AF3B462C
:1008080000221A605A609A60DA601A615A610123FC
:100818003B60C823BB6005237B600223FB603B462B
:10082800184603F0E7FB0346002B01D000F0A0F9BF
:1008380000BF1837BD4680BD80B500AF124B134AC4
:100848001A60114B124A5A600F4B00229A600E4BE5
:100858000022DA600C4B4FF480421A610A4B0022E6
:100868005A61094B00229A61074B0022DA61064B54
:1008780000221A62044800F0EFFE0346002B01D064
:1008880000F076F900BF80BD380100200054004018
:10089800A086010080B500AF124B134A1A60114BB5
:1008A8004FF400725A600F4B00229A600D4B0022E1
:1008B800DA600C4B00221A610A4B0C4A5A61094B48
:1008C80000229A61074B0022DA61064B01221A6264
:1008D800044801F005F80346002B01D000F048F960
:1008E80000BF80BD8C010020003800400077010067
:1008F80080B500AF134B144A1A60124B4FF40072C4
:100908005A60104B00229A600E4B0022DA600D4BA1
:100918004FF400721A610B4B0C4A5A61094B0022C2
:100928009A61084B0022DA61064B00221A620548D8
:1009380000F0D6FF0346002B01D000F019F900BFE4
:1009480080BD00BFD4010020003C004000770100BA
:1009580080B500AF174B184A1A60164B4FF48272D5
:100968005A60144B00229A60124B0022DA60114B35
:1009780000221A610F4B00225A610E4B4FF400728D
:100988009A610C4B0022DA610A4B00221A62094B69
:1009980000225A62074B00229A62064B0A22DA6248
:1009A800044803F077FC0346002B01D000F0E0F880
:1009B80000BF80BD1C0200200030014080B58CB013
:1009C80000AF07F11C0300221A605A609A60DA60CF
:1009D8001A610023BB61614B1B6B604A43F0100333
:1009E80013635E4B1B6B03F01003BB61BB690023F1
:1009F8007B615A4B1B6B594A43F004031363574BF3
:100A08001B6B03F004037B617B6900233B61534B41
:100A18001B6B524A43F080031363504B1B6B03F06C
:100A280080033B613B690023FB604C4B1B6B4B4ACB
:100A380043F001031363494B1B6B03F00103FB6095
:100A4800FB680023BB60454B1B6B444A43F0020321
:100A58001363424B1B6B03F00203BB60BB680023AC
:100A68007B603E4B1B6B3D4A43F0080313633B4BD3
:100A78001B6B03F008037B607B6800220821384861
:100A880000F0B6FD01220121364800F0B1FD002238
:100A98004FF21001344800F0ABFD0423FB61002342
:100AA8003B6200237B6207F11C0319462C4800F0C7
:100AB80003FC0823FB6101233B6200237B620023C4
:100AC800BB6207F11C031946254800F0F5FB3223E9
:100AD800FB614FF490133B6200237B6207F11C0318
:100AE80019461F4800F0E8FB0123FB6101233B6224
:100AF80000237B620023BB6207F11C0319461948D7
:100B080000F0DAFB0123FB614FF490133B620023F2
:100B18007B6207F11C031946144800F0CDFB4FF225
:100B28001003FB6101233B6200237B620023BB624D
:100B380007F11C0319460C4800F0BEFB2023FB619B
:100B480000233B6200237B6207F11C031946064819
:100B580000F0B2FB00BF3037BD4680BD0038024010
:100B68000010024000080240000C02400000024051
:100B780080B400AF72B600BFFEE7000080B582B057
:100B880000AF00237B60104B5B6C0F4A43F480433B
:100B980053640D4B5B6C03F480437B607B680023DC
:100BA8003B60094B1B6C084A43F080531364064BA7
:100BB8001B6C03F080533B603B68072000F03AFB56
:100BC80000BF0837BD4680BD0038024080B58AB0F6
:100BD80000AF786007F1140300221A605A609A6027
:100BE800DA601A617B681B68194A93422CD100238A
:100BF8003B61184B1B6B174A43F002031363154BF9
:100C08001B6B03F002033B613B694FF410737B617C
:100C18001223BB610123FB6100233B6204237B6237
:100C280007F1140319460C4800F046FB0023FB604B
:100C3800084B1B6C074A43F400131364054B1B6CE9
:100C480003F40013FB60FB6800BF2837BD4680BD76
:100C580000540040003802400004024080B58EB0C5
:100C680000AF786007F1240300221A605A609A6086
:100C7800DA601A617B681B68594A93425BD100238A
:100C88003B62584B1B6C574A43F480431364554BE3
:100C98001B6C03F480433B623B6A0023FB61514BAE
:100CA8001B6B504A43F0040313634E4B1B6B03F05A
:100CB8000403FB61FB690023BB614A4B1B6B494A78
:100CC80043F002031363474B1B6B03F00203BB6142
:100CD800BB6904237B620223BB620023FB620023FF
:100CE8003B6306237B6307F1240319463E4800F063
:100CF800E3FA08237B620223BB620023FB62002322
:100D08003B6305237B6307F124031946364800F04B
:100D1800D3FA4FF4A0537B620223BB620023FB6229
:100D280000233B6305237B6307F1240319462F48FF
:100D380000F0C2FA4FE07B681B682D4A93424AD103
:100D480000237B61274B1B6C264A43F40043136442
:100D5800244B1B6C03F400437B617B6900233B61DC
:100D6800204B1B6B1F4A43F0010313631D4B1B6B86
:100D780003F001033B613B690023FB60194B1B6BCC
:100D8800184A43F004031363164B1B6B03F0040368
:100D9800FB60FB6810237B620223BB620023FB62BB
:100DA80000233B6306237B6307F12403194611489C
:100DB80000F082FA4FF4A4537B620223BB62002343
:100DC800FB6200233B6306237B6307F12403194678
:100DD800054800F071FA00BF3837BD4680BD00BF36
:100DE8000038004000380240000802400004024079
:100DF800003C00400000024080B58AB000AF786037
:100E080007F1140300221A605A609A60DA601A61C6
:100E18007B681B68194A93422BD100233B61184B0E
:100E28005B6C174A43F480535364154B5B6C03F4B3
:100E380080533B613B690023FB60114B1B6B104ADD
:100E480043F0010313630E4B1B6B03F00103FB60BC
:100E5800FB68E0237B610223BB610023FB61032362
:100E68003B6205237B6207F114031946054800F02D
:100E780023FA00BF2837BD4680BD00BF00300140BF
:100E8800003802400000024080B400AFFEE780B4A2
:100E980000AFFEE780B400AFFEE780B400AFFEE726
:100EA80080B400AFFEE780B400AF00BFBD465DF878
:100EB800047B704780B400AF00BFBD465DF8047B7B
:100EC800704780B400AF00BFBD465DF8047B704733
:100ED80080B500AF00F09AF800BF80BD80B500AFC4
:100EE800024801F0EDFA00BF80BD00BF580700209E
:100EF80080B400AF064BD3F88830054A43F470033A
:100F0800C2F8883000BFBD465DF8047B704700BF5B
:100F180000ED00E0DFF834D00D480E490E4A0023FA
:100F280002E0D458C4500433C4188C42F9D30B4A95
:100F38000B4C002301E013600432A242FBD3FFF7FD
:100F4800D7FF06F0E9FFFFF7C5FA70470000022057
:100F5800000000201C010020F47F00081C01002074
:100F6800780C0020FEE7000080B500AF0E4B1B6830
:100F78000D4A43F4007313600B4B1B680A4A43F491
:100F880080631360084B1B68074A43F4807313603F
:100F9800032000F04FF9002000F008F8FFF7EEFDFD
:100FA8000023184680BD00BF003C024080B582B0D7
:100FB80000AF7860124B1A68124B1B7819464FF431
:100FC8007A73B3FBF1F3B2FBF3F3184600F067F959
:100FD8000346002B01D001230EE07B680F2B0AD8B3
:100FE800002279684FF0FF3000F02FF9064A7B683D
:100FF8001360002300E0012318460837BD4680BD72
:1010080000000020080000200400002080B400AF89
:10101800064B1B781A46064B1B681344044A136098
:1010280000BFBD465DF8047B704700BF0800002084
:101038007402002080B400AF034B1B681846BD46FD
:101048005DF8047B704700BF7402002080B584B04F
:1010580000AF7860FFF7EEFFB8607B68FB60FB6865
:10106800B3F1FF3F05D00A4B1B781A46FB681344BF
:10107800FB6000BFFFF7DEFF0246BB68D31AFA68C1
:101088009A42F7D800BF00BF1037BD4680BD00BFE9
:101098000800002080B485B000AF78607B6803F05A
:1010A8000703FB600C4BDB68BB60BA684FF6FF03B5
:1010B8001340BB60FB681A02BB68134343F0BF636D
:1010C80043F40033BB60044ABB68D36000BF1437E5
:1010D800BD465DF8047B704700ED00E080B400AFCA
:1010E800044BDB681B0A03F007031846BD465DF88E
:1010F800047B704700ED00E080B483B000AF034686
:10110800FB7197F90730002B0BDBFB7903F01F020B
:10111800074997F907305B09012000FA02F241F804
:10112800232000BF0C37BD465DF8047B704700BF25
:1011380000E100E080B483B000AF03463960FB7182
:1011480097F90730002B0ADB3B68DAB20C4997F9AC
:1011580007301201D2B20B4483F800230AE03B683F
:10116800DAB20849FB7903F00F03043B1201D2B24B
:101178000B441A7600BF0C37BD465DF8047B7047F8
:1011880000E100E000ED00E080B489B000AFF86055
:10119800B9607A60FB6803F00703FB61FB69C3F180
:1011A8000703042B28BF0423BB61FB690433062B08
:1011B80002D9FB69033B00E000237B614FF0FF325B
:1011C800BB6902FA03F3DA43BB681A407B699A40A9
:1011D8004FF0FF317B6901FA03F3D9437B680B4079
:1011E800134318462437BD465DF8047B704700005A
:1011F80080B582B000AF78607B68013BB3F1807F37
:1012080001D301230FE00A4A7B68013B53600F2199
:101218004FF0FF30FFF78EFF054B00229A60044B1A
:1012280007221A60002318460837BD4680BD00BF54
:1012380010E000E080B582B000AF78607868FFF712
:1012480029FF00BF0837BD4680BD80B586B000AF16
:101258000346B9607A60FB7300237B61FFF73EFFAA
:1012680078617A68B9687869FFF78EFF024697F95E
:101278000F3011461846FFF75DFF00BF1837BD460F
:1012880080BD80B582B000AF0346FB7197F9073087
:101298001846FFF731FF00BF0837BD4680BD80B54F
:1012A80082B000AF78607868FFF7A2FF034618465F
:1012B8000837BD4680BD000080B489B000AF7860B3
:1012C800396000237B6100233B610023BB6100235D
:1012D800FB6159E10122FB6902FA03F37B613B6878
:1012E8001B687A6913403B613A697B699A4240F00E
:1012F80048813B685B6803F00303012B05D03B681A
:101308005B6803F00303022B30D17B689B68BB61E9
:10131800FB695B00032202FA03F3DB43BA6913405B
:10132800BB613B68DA68FB695B0002FA03F3BA69E0
:101338001343BB617B68BA699A607B685B68BB6171
:101348000122FB6902FA03F3DB43BA691340BB616C
:101358003B685B681B0903F00102FB6902FA03F3AF
:10136800BA691343BB617B68BA695A603B685B68BA
:1013780003F00303032B17D07B68DB68BB61FB69B1
:101388005B00032202FA03F3DB43BA691340BB6133
:101398003B689A68FB695B0002FA03F3BA69134376
:1013A800BB617B68BA69DA603B685B6803F003037A
:1013B800022B23D1FB69DA087B68083253F8223004
:1013C800BB61FB6903F007039B000F2202FA03F3DA
:1013D800DB43BA691340BB613B681A69FB6903F0D8
:1013E80007039B0002FA03F3BA691343BB61FB6965
:1013F800DA087B680832B96943F822107B681B68F1
:10140800BB61FB695B00032202FA03F3DB43BA69A1
:101418001340BB613B685B6803F00302FB695B0038
:1014280002FA03F3BA691343BB617B68BA691A60AD
:101438003B685B6803F44033002B00F0A280002374
:10144800FB60574B5B6C564A43F480435364544BE0
:101458005B6C03F48043FB60FB68524AFB699B08A2
:10146800023352F82330BB61FB6903F003039B008E
:101478000F2202FA03F3DB43BA691340BB617B68AE
:10148800494A934219D07B68484A934213D07B68F3
:10149800474A93420DD07B68464A934207D07B68FF
:1014A800454A934201D1042308E0072306E00323B9
:1014B80004E0022302E0012300E00023FA6902F0BD
:1014C800030292009340BA691343BB613549FB6933
:1014D8009B080233BA6941F82320384B9B68BB61EB
:1014E8003B69DB43BA691340BB613B685B6803F443
:1014F8008013002B03D0BA693B691343BB612F4AA1
:10150800BB6993602D4BDB68BB613B69DB43BA6900
:101518001340BB613B685B6803F40013002B03D0E6
:10152800BA693B691343BB61244ABB69D360234B47
:101538005B68BB613B69DB43BA691340BB613B68CD
:101548005B6803F40033002B03D0BA693B6913438B
:10155800BB611A4ABB695360184B1B68BB613B6986
:10156800DB43BA691340BB613B685B6803F48033B3
:10157800002B03D0BA693B691343BB610F4ABB69AF
:101588001360FB690133FB61FB690F2B7FF6A2AE89
:1015980000BF00BF2437BD465DF8047B704700BF1D
:1015A80000380240003801400000024000040240B8
:1015B80000080240000C024000100240003C0140BC
:1015C80080B485B000AF78600B467B807B681A6971
:1015D8007B881340002B02D00123FB7301E000231A
:1015E800FB73FB7B18461437BD465DF8047B7047D8
:1015F80080B483B000AF78600B467B8013467B7065
:101608007B78002B03D07A887B689A6103E07B881B
:101618001A047B689A6100BF0C37BD465DF8047BED
:10162800704780B485B000AF78600B467B807B68DC
:101638005B69FB607A88FB6813401A04FB68D9432E
:101648007B880B401A437B689A6100BF1437BD46FC
:101658005DF8047B7047000080B584B000AF786007
:101668007B68002B01D101232BE17B6893F83D3087
:10167800DBB2002B06D17B68002283F83C20786817
:10168800FFF7A4FA7B68242283F83D207B681B6857
:101698001A687B681B6822F001021A607B681B6865
:1016A8001A687B681B6842F400421A607B681B68F2
:1016B8001A687B681B6822F400421A6002F086FCF4
:1016C800F8607B685B68814A934207D8FB68804A68
:1016D800934294BF01230023DBB206E0FB687D4AF6
:1016E800934294BF01230023DBB2002B01D00123D6
:1016F800E7E0FB68784AA2FB03239B0CBB607B688E
:101708001B685B6823F03F017B681B68BA680A4363
:101718005A607B681B681B6A23F03F017B685B6823
:101728006A4A934202D8BB68013309E0BB684FF4A8
:10173800967202FB03F3694AA2FB03239B09013358
:101748007A6812680B4313627B681B68DB6923F4B1
:101758004F4222F0FF027B685B685C498B4219D8D4
:10176800FB68591E7B685B685B00B1FBF3F3591C8F
:1017780040F6FC730B40002B0AD0FB68591E7B68AF
:101788005B685B00B1FBF3F30133C3F30B0351E078
:1017980004234FE07B689B68002B11D1FB68581E1F
:1017A8007B6859680B465B000B44B0FBF3F30133CD
:1017B800C3F30B03002B0CBF01230023DBB212E0A1
:1017C800FB68581E7B6859680B469B000B449900C0
:1017D8000B44B0FBF3F30133C3F30B03002B0CBF33
:1017E80001230023DBB2002B01D0012322E07B6818
:1017F8009B68002B0ED1FB68581E7B6859680B4606
:101808005B000B44B0FBF3F30133C3F30B0343F466
:1018180000430FE0FB68581E7B6859680B469B0025
:101828000B4499000B44B0FBF3F30133C3F30B03F0
:1018380043F44043796809681343CB617B681B68AC
:101848001B6823F0C0017B68DA697B681B6A1A434E
:101858007B681B680A431A607B681B689B6823F4D3
:10186800034323F0FF037A6811697A68D268114349
:101878007A6812680B4393607B681B68DB6823F007
:10188800FF017B685A697B689B691A437B681B6800
:101898000A43DA607B681B681A687B681B6842F039
:1018A80001021A607B6800221A647B68202283F890
:1018B8003D207B6800221A637B68002283F83E2063
:1018C800002318461037BD4680BD00BFA086010022
:1018D8007F841E00FF083D0083DE1B43D34D62104A
:1018E80080B588B000AF78607B68002B01D10123F8
:1018F80028E17B6893F84130DBB2002B09D17B6883
:10190800002283F840207B68904A5A637868FFF782
:10191800A5F97B68022283F841207B681B68DB6994
:101928007A68126823F47B6323F00F03D3617B6822
:101938001B6802221A627B685B69022B60D07B6895
:10194800DB68002B02D110237B6101E020237B613F
:101958007B689B68202B02D87B695B007B61012038
:1019680002F038FCF8607B681B69B3F5007F25D16D
:101978007B68DB68002B10D07B699B00FA68B2FBA0
:10198800F3F213469B0013445B001A467B685B69BD
:10199800B2FBF3F305333B611FE07B69DB00FA68B8
:1019A800B2FBF3F213469B0013445B001A467B68B4
:1019B8005B69B2FBF3F305333B610EE0FA687B69C0
:1019C800B2FBF3F213469B0013445B001A467B6894
:1019D8005B69B2FBF3F305333B613B695C4AA2FBED
:1019E8000323DB083B613B6903F00103BB613A69F0
:1019F800BB69D31A5B08FB61BB691B02BB6103E0CF
:101A08000223FB610023BB61FB69012B02D9FB693F
:101A1800FF2B07D97B685B6C43F010027B685A6424
:101A280001238FE07B681A69BB6942EA03017B687E
:101A38001B68FA690A431A627B681B68DB6923F42E
:101A48007B6323F00F037A6851687A6892681143C0
:101A58007A68D26811437A6892690A431A437B68A4
:101A68001B6842F40062DA617B681B6A012B61D152
:101A78007B68384A5A637B681B68374A934201D1AE
:101A8800364B01E04FF04023DB697A68126832492F
:101A98008A4201D1314A01E04FF0402223F47B63AE
:101AA80023F00F03D3617B681B682B4A934201D153
:101AB8002A4B01E04FF0402302221A627B681B6820
:101AC800254A934201D1254B01E04FF04023DB69C1
:101AD8007B817B685B68B3F5007F03D07B685B68BC
:101AE800002B03D14FF480733B6101E000233B617D
:101AF8003B699AB27B689B689BB213439AB27B6836
:101B0800DB689BB213439AB27B689B699BB2134311
:101B18009AB27B8913439BB243F400637B817B6851
:101B28001B680D4A934201D10C4B01E04FF0402352
:101B38007A89DA617B6800225A647B68012283F81B
:101B48004120002318462037BD4680BD5F1C000891
:101B5800CDCCCCCC751D00080038004000340040C6
:101B680080B483B000AF786000BF0C37BD465DF825
:101B7800047B704780B483B000AF786000BF0C3737
:101B8800BD465DF8047B704780B483B000AF7860D1
:101B980000BF0C37BD465DF8047B704780B582B046
:101BA80000AF78607B685B6A1A887B681B68DA60BC
:101BB8007B685B6A9A1C7B685A627B685B8D9BB208
:101BC800013B9AB27B685A857B685B8D9BB2002B80
:101BD8000ED17B681B685A687B681B6822F0A002DC
:101BE8005A607B68012283F841207868FFF7B8FFC4
:101BF80000BF0837BD4680BD80B582B000AF7860B1
:101C08007B681B68DA687B68DB6A92B21A807B683B
:101C1800DB6A9A1C7B68DA627B685B8E9BB2013B4D
:101C28009AB27B685A867B685B8E9BB2002B0ED17A
:101C38007B681B685A687B681B6822F060025A60E0
:101C48007B68012283F841207868FFF793FF00BF83
:101C58000837BD4680BD80B586B000AF78607B6828
:101C68001B689B687B617B6893F84130DBB2042B6F
:101C78003AD17B6903F00103012B09D17B681B680A
:101C88005B6803F04003402B02D17868FFF7B4FF8C
:101C98007B6903F04003402B26D17B681B685B6897
:101CA80003F02003202B1FD17B681B685A687B68D0
:101CB8001B6822F060025A6000233B617B681B6846
:101CC800DB683B617B681B689B683B613B697B68A1
:101CD800012283F841207B685B6C43F002027B6839
:101CE8005A647868FFF750FF7B6893F84130DBB29D
:101CF800032B36D17B6903F00203022B09D17B68E1
:101D08001B685B6803F08003802B02D17868FFF7BB
:101D180045FF7B6903F00803082B22D17B681B6809
:101D28005B6803F02003202B1BD17B681B685A6873
:101D38007B681B6822F0A0025A600023FB607B6866
:101D48001B689B68FB60FB687B68012283F8412065
:101D58007B685B6C43F004027B685A647868FFF721
:101D680013FF00BF1837BD4680BD000080B588B09E
:101D780000AF78607B681B689B68FB617B681B68A9
:101D8800924A934201D1924B01E04FF040239B6865
:101D9800BB617B681B685B687B617B681B688B4ADF
:101DA800934201D18A4B01E04FF040235B683B61CD
:101DB8007B685B68B3F5007F04D07B685B68002BA9
:101DC80040F09980FB6903F00203022B07D17B697D
:101DD80003F08003002B02D0786800F025F9BB6976
:101DE80003F00103012B07D13B6903F04003002BEB
:101DF80002D0786800F0C8F9BB6903F04003402BB3
:101E08003AD13B6903F02003002B35D07B681B686F
:101E18006E4A934201D16E4B01E04FF040235A685D
:101E28007B681B6869498B4201D1694B01E04FF01F
:101E3800402322F060025A607B681B685A687B68FE
:101E48001B6822F0A0025A600023FB607B681B68B5
:101E5800DB68FB607B681B689B68FB60FB687B68D2
:101E6800012283F841207B685B6C43F002027B68A7
:101E78005A647868FFF788FEFB6903F00803082BAB
:101E880040F0C3807B6903F02003002B00F0BD8085
:101E98007B681B685A687B681B6822F0A0025A603E
:101EA8007B681B68494A934201D1494B01E04FF0D6
:101EB80040235A687B681B6844498B4201D1444BD4
:101EC80001E04FF0402322F060025A600023BB601B
:101ED8007B681B689B68BB60BB687B68012283F8D2
:101EE80041207B685B6C43F004027B685A64786825
:101EF800FFF74AFE89E0BB6903F00203022B07D112
:101F08003B6903F08003002B02D0786800F0BEF82C
:101F1800FB6903F00103012B07D17B6903F0400340
:101F2800002B02D0786800F0FDF8FB6903F040034D
:101F3800402B2FD17B6903F02003002B2AD07B682C
:101F48001B685A687B681B6822F060025A607B68CD
:101F58001B681E4A934201D11D4B01E04FF04023FC
:101F68005A687B681B6819498B4201D1184B01E0FC
:101F78004FF0402322F0A0025A607B68012283F8C8
:101F880041207B685B6C43F002027B685A64786886
:101F9800FFF7FAFDBB6903F00803082B36D13B694C
:101FA80003F02003002B31D07B681B68074A93425B
:101FB80001D1074B01E04FF040235A687B681B684A
:101FC80002498B4206D1024B06E000BF00380040B0
:101FD800003400404FF0402322F0A0025A607B6892
:101FE8001B685A687B681B6822F060025A607B682D
:101FF800012283F841207B685B6C43F004027B6814
:102008005A647868FFF7C0FD00E000BF00BF2037C2
:10201800BD4680BD80B483B000AF786000BF0C3788
:10202800BD465DF8047B704780B582B000AF78602C
:102038007B685B6A991C7A6851621A887B681B689E
:10204800DA607B685B8D9BB2013B9AB27B685A85EC
:102058007B685B8D9BB2002B13D17B681B685A6829
:102068007B681B6822F0A0025A607B685B8E9BB27B
:10207800002B06D17B68012283F841207868FFF79E
:10208800C9FF00BF0837BD4680BD000080B582B0DB
:1020980000AF78607B685B6A991C7A68516219881E
:1020A8007B681B681D4A934201D11D4B01E04FF02C
:1020B80040230A46DA607B685B8D9BB2013B9AB28B
:1020C8007B685A857B685B8D9BB2002B21D17B682E
:1020D8001B68124A934201D1114B01E04FF0402393
:1020E8005A687B681B680D498B4201D10C4B01E093
:1020F8004FF0402322F0A0025A607B685B8E9BB2AF
:10210800002B06D17B68012283F841207868FFF70D
:1021180081FF00BF0837BD4680BD00BF00380040C2
:102128000034004080B582B000AF78607B681B68DF
:10213800D8687B68DB6A991C7A68D16282B21A8097
:102148007B685B8E9BB2013B9AB27B685A867B6840
:102158005B8E9BB2002B13D17B681B685A687B6827
:102168001B6822F060025A607B685B8D9BB2002B73
:1021780006D17B68012283F841207868FFF74AFF7F
:1021880000BF0837BD4680BD80B582B000AF78601B
:102198007B681B68204A934201D1204B01E04FF035
:1021A8004023D8687B68DB6A991C7A68D16282B25E
:1021B8001A807B685B8E9BB2013B9AB27B685A8619
:1021C8007B685B8E9BB2002B21D17B681B68124A0F
:1021D800934201D1114B01E04FF040235A687B68CC
:1021E8001B680D498B4201D10C4B01E04FF0402395
:1021F80022F060025A607B685B8D9BB2002B06D18F
:102208007B68012283F841207868FFF703FF00BF4D
:102218000837BD4680BD00BF00380040003400408C
:10222800F0B58FB00AAF78607B68002B01D101232D
:102238000FE17B681B68BB607B6893F8BD34DBB239
:10224800002B06D17B68002283F8BC24786805F04F
:102258005DFB7B68032283F8BD24BB68DB6B03F45A
:102268008073002B02D17B6800221A617B681B688F
:10227800184602F0ACF97B681B683B607E686D46C7
:1022880006F110040FCC0FC50FCC0FC594E803005E
:1022980085E80300331D0ECB386802F084F8034646
:1022A800002B05D07B68022283F8BD240123D0E0EF
:1022B8007B681B680021184602F09AF90023FB731B
:1022C8004AE0FA7B79681346DB0013449B000B4411
:1022D8003D3301221A70FA7B79681346DB001344F8
:1022E8009B000B443C33FA7B1A70FA7BFB7B98B259
:1022F80079681346DB0013449B000B4444330246C1
:102308001A80FA7B79681346DB0013449B000B4460
:10231800403300221A70FA7B79681346DB001344B5
:102328009B000B44483300221A60FA7B79681346F5
:10233800DB0013449B000B444C3300221A60FA7BE9
:1023480079681346DB0013449B000B445433002286
:102358001A60FB7B0133FB73FA7B7B685B689A42EC
:10236800AFD30023FB7344E0FA7B79681346DB00A4
:1023780013449B000B4403F27D2300221A70FA7B5E
:1023880079681346DB0013449B000B4403F51F7365
:10239800FA7B1A70FA7B79681346DB0013449B00BA
:1023A8000B4403F5207300221A70FA7B79681346F0
:1023B800DB0013449B000B4403F5227300221A60D0
:1023C800FA7B79681346DB0013449B000B4403F542
:1023D800237300221A60FA7B79681346DB001344E2
:1023E8009B000B4403F5257300221A60FB7B013325
:1023F800FB73FA7B7B685B689A42B5D37B681B6882
:102408003B607E686D4606F110040FCC0FC50FCCFB
:102418000FC594E8030085E80300331D0ECB386828
:1024280002F032F90346002B05D07B68022283F8BC
:10243800BD2401230DE07B68002283F838207B68E7
:10244800012283F8BD247B681B68184603F081FAD3
:10245800002318461437BD46F0BD80B584B000AFE0
:1024680078607B681B68FB607B6893F8BC34012B41
:1024780001D1022320E07B68012283F8BC247B6819
:102488009B6A012B09D17B689B69012B05D0FB68EE
:102498009B6B43F48032FB689A637B681B68184621
:1024A80002F084F87B681B68184603F031FA7B68F1
:1024B800002283F8BC24002318461037BD4680BD8F
:1024C80090B58DB000AF78607B681B683B623B6A53
:1024D800FB617B681B68184603F0EFFA0346002B84
:1024E80040F08A847B681B68184603F053FA034659
:1024F800002B00F08084FB6903F500639B681B0ACE
:10250800C3F30D027B68C3F8FC247B681B6818467C
:1025180003F040FA034603F00203022B07D17B685D
:102528001B685A697B681B6802F002025A617B6863
:102538001B68184603F02EFA034603F01003102B0D
:1025480061D17B681B689A697B681B6822F010025E
:102558009A613B6A1B6ABB61BB6903F00F021346B1
:10256800DB0013449B0003F51E737A68134404339D
:102578007B61BB695B0C03F00F03022B24D1BA69A2
:1025880047F6F0731340002B35D07B691969BB6996
:102598001B099BB2C3F30A039BB21A46386A03F0BD
:1025A80065F87B691A69BB691B09C3F30A031A44F6
:1025B8007B691A617B691A6ABB691B09C3F30A0341
:1025C8001A447B691A6216E0BB695B0C03F00F03BF
:1025D800062B10D17B6803F2C44308221946386AD7
:1025E80003F044F87B691A6ABB691B09C3F30A0341
:1025F8001A447B691A627B681B689A697B681B6846
:1026080042F010029A617B681B68184603F0C2F911
:10261800034603F40023B3F5002F40F0A7800023FE
:102628007B627B681B68184603F0C7F9B86299E0BB
:10263800BB6A03F00103002B00F08E807B681B68E7
:102648007A6AD2B21146184603F0EBF938613B6951
:1026580003F00103002B0CD07B6A5A01FB69134479
:1026680003F530631A4601239360796A786800F0AD
:10267800ABFE3B6903F00803002B0CD07B6A5A01C0
:10268800FB69134403F530631A4608239360796A9B
:10269800786800F081FF3B6903F01003002B08D035
:1026A8007B6A5A01FB69134403F530631A46102309
:1026B80093603B6903F00203002B30D03B6A5B69EF
:1026C80003F08003802B09D1FB6903F500635B6885
:1026D800FA6902F5006243F4806353607A6A13462C
:1026E800DB0013449B0003F51E737A68134404331C
:1026F8007B617B69DB78012B08D17B690022DA706A
:102708007B6ADBB21946786805F00AFA7B6A5A01D7
:10271800FB69134403F530631A46022393603B694F
:1027280003F02003002B08D07B6A5A01FB6913448D
:1027380003F530631A46202393603B6903F4005382
:10274800002B09D07B6A5A01FB69134403F53063F7
:102758001A464FF4005393607B6A01337B62BB6A6D
:102768005B08BB62BB6A002B7FF462AF7B681B68A7
:10277800184603F00FF9034603F48023B3F5802FBE
:1027880040F0DB807B681B68184603F030F9B862BC
:1027980000237B62CDE0BB6A03F00103002B00F04D
:1027A800C2807B681B687A6AD2B21146184603F069
:1027B80056F938613B6903F00103002B57D07B6A57
:1027C80003F00F03012202FA03F3FB60FB6903F530
:1027D80000635A6BFB68DB43F96901F5006113403C
:1027E8004B637B6A5A01FB69134403F510631A466D
:1027F800012393607B681B69012B32D179687A6A5F
:102808001346DB0013449B000B444C33196878686B
:102818007A6A1346DB0013449B00034448331B6861
:10282800194478687A6A1346DB0013449B00034412
:102838004C3319607B6A002B13D179687A6A134686
:10284800DB0013449B000B4454331B68002B08D156
:102858007B6818687B6803F2C4431A46012103F0B9
:102868005DF97B6ADBB21946786805F0DEF83B69EA
:1028780003F00803002B08D07B6A5A01FB69134454
:1028880003F510631A46082393603B6903F01003AD
:10289800002B08D07B6A5A01FB69134403F51063C7
:1028A8001A46102393603B6903F04003002B08D0BD
:1028B8007B6A5A01FB69134403F510631A464023E7
:1028C80093603B6903F00203002B23D0796A386ACE
:1028D80002F03EF87A6A1346DB0013449B00383353
:1028E8007A68134404337B617B69DB78012B08D158
:1028F8007B690022DA707B6ADBB21946786805F0DA
:1029080021F97B6A5A01FB69134403F510631A46DF
:10291800022393603B6903F08003002B03D0796A9C
:10292800786800F0C3FC7B6A01337B62BB6A5B0892
:10293800BB62BB6A002B7FF42EAF7B681B6818460E
:1029480003F028F8034603F00043B3F1004F22D107
:10295800FB6903F500635B68FA6902F5006223F01E
:10296800010353607B6893F8F434012B08D17B682A
:10297800002283F8F4240021786800F0ABFE02E01E
:10298800786805F0BFF87B681B685A697B681B6824
:1029980002F000425A617B681B68184602F0FAFF91
:1029A800034603F40063B3F5006F12D1FB6903F526
:1029B80000639B6803F00103012B02D1786805F0DE
:1029C8007BF87B681B685A697B681B6802F40062A5
:1029D8005A617B681B68184602F0DCFF034603F463
:1029E8008053B3F5805F40F0B780FB6903F500635F
:1029F8005B68FA6902F5006223F0010353607B68A3
:102A08001B681021184601F0A3FF0023FB6246E073
:102A1800FB6A5A01FB69134403F510631A464FF623
:102A28007F339360FB6A5A01FB69134403F5106313
:102A38001B68FA6A5101FA690A4402F5106223F424
:102A480000131360FB6A5A01FB69134403F53063F2
:102A58001A464FF67F339360FB6A5A01FB691344A9
:102A680003F530631B68FA6A5101FA690A4402F5F2
:102A7800306223F400131360FB6A5A01FB691344A4
:102A880003F530631B68FA6A5101FA690A4402F5D2
:102A9800306243F000631360FB6A0133FB627B68BA
:102AA8005B68FA6A9A42B3D3FB6903F50063DB6992
:102AB800FA6902F5006243F00113D3617B681B6B6E
:102AC800002B16D0FB6903F50063D3F88430FA694C
:102AD80002F5006243F00B03C2F88430FB6903F58A
:102AE80000635B6CFA6902F5006243F00B03536400
:102AF80015E0FB6903F500635B69FA6902F500629A
:102B080043F4005343F02B035361FB6903F500635F
:102B18001B69FA6902F5006243F00B031361FB6954
:102B280003F500631B68FA6902F5006223F4FE638B
:102B380013607B6818687B681B69D9B27B6803F2ED
:102B4800C4431A4602F0EAFF7B681B685A697B682F
:102B58001B6802F480525A617B681B68184602F0B1
:102B680019FF034603F40053B3F5005F24D17B68D3
:102B78001B68184602F0AFFF7B681B68184601F017
:102B880064FF03461A467B68DA607B681C6801F0BC
:102B980011FA01467B68DB68DBB21A46204601F071
:102BA80063FC786804F069FF7B681B685A697B6876
:102BB8001B6802F400525A617B681B68184602F0D1
:102BC800E9FE034603F00803082B0AD1786804F0ED
:102BD80046FF7B681B685A697B681B6802F008021D
:102BE8005A617B681B68184602F0D4FE034603F05E
:102BF8008003802B22D13B6A9B6923F080023B6AC9
:102C08009A6101237B6214E079687A6A1346DB00D3
:102C180013449B000B4403F27F231B78012B05D13F
:102C28007B6ADBB21946786800F00FFB7B6A0133D8
:102C38007B627B685B687A6A9A42E5D37B681B682B
:102C4800184602F0A7FE034603F48013B3F5801F6D
:102C58003BD101237B622BE07B6A5A01FB69134459
:102C680003F510631B68BB6179687A6A1346DB0059
:102C780013449B000B4440331B78012B15D1BB69CF
:102C8800002B12DA79687A6A1346DB0013449B003A
:102C98000B443F3301221A707B6ADBB263F07F0377
:102CA800DBB21946786800F0D0FA7B6A01337B62A0
:102CB8007B685B687A6A9A42CED37B681B685A69DC
:102CC8007B681B6802F480125A617B681B6818468F
:102CD80002F060FE034603F40013B3F5001F55D15C
:102CE80001237B6245E07B6A5A01FB69134403F5C3
:102CF80030631B68BB6179687A6A1346DB0013444A
:102D08009B000B4403F520731B78012B2ED1BB6964
:102D1800002B2BDABB6903F480327B68D3F8FC34D0
:102D280003F001039A4221D179687A6A1346DB00DD
:102D380013449B000B4403F27F2301221A703B6A61
:102D48009B6943F080023B6A9A613B6A5B6903F0C6
:102D58008003002B0AD1FB6903F500635B68FA69FD
:102D680002F5006243F40073536007E07B6A0133A5
:102D78007B627B685B687A6A9A42B4D37B681B681B
:102D88005A697B681B6802F400125A617B681B68E9
:102D9800184602F0FFFD034603F08043B3F1804F6D
:102DA8000AD1786804F0E0FE7B681B685A697B6882
:102DB8001B6802F080425A617B681B68184602F063
:102DC800E9FD034603F00403042B15D17B681B6857
:102DD8005B68BB61BB6903F00403002B02D0786811
:102DE80004F0D0FE7B681B6859687B681B68BA6969
:102DF8000A435A6000E000BF3437BD4690BD80B535
:102E080082B000AF78600B46FB707B6893F8BC34E7
:102E1800012B01D1022313E07B68012283F8BC2433
:102E28007B68FA7883F838207B681B68FA78114643
:102E3800184602F047FD7B68002283F8BC24002373
:102E480018460837BD4680BD80B584B000AF7860AD
:102E5800084611461A460346FB700B463B8013464C
:102E6800BB700023FB7297F90330002B0FDAFB7855
:102E780003F00F021346DB0013449B0038337A68D3
:102E880013440433FB60FB6801225A700FE0FB789F
:102E980003F00F021346DB0013449B0003F51E7377
:102EA8007A6813440433FB60FB6800225A70FB788D
:102EB80003F00F03DAB2FB681A703A88FB68DA602D
:102EC800FB68BA781A71FB685B78002B04D0FB6842
:102ED8001B789AB2FB681A81BB78022B02D1FB6877
:102EE80000225A717B6893F8BC34012B01D102236C
:102EF8000EE07B68012283F8BC247B681B68F968B4
:102F0800184601F0C7FD7B68002283F8BC24FB7AD1
:102F180018461037BD4680BD80B584B000AF7860D4
:102F28000B46FB7097F90330002B0FDAFB7803F0A0
:102F38000F021346DB0013449B0038337A681344AE
:102F48000433FB60FB6801225A700FE0FB7803F042
:102F58000F021346DB0013449B0003F51E737A68C7
:102F680013440433FB60FB6800225A70FB7803F0BB
:102F78000F03DAB2FB681A707B6893F8BC34012B34
:102F880001D102230EE07B68012283F8BC247B6810
:102F98001B68F968184601F005FE7B68002283F873
:102FA800BC24002318461037BD4680BD80B586B0C6
:102FB80000AFF8607A603B600B46FB72FB7A03F067
:102FC8000F021346DB0013449B0003F51E73FA68D7
:102FD800134404337B617B697A681A617B693A68B8
:102FE8009A617B6900221A627B6900225A70FB7A17
:102FF80003F00F03DAB27B691A70FB681B69012BB7
:1030080002D17A687B695A61FB7A03F00F03002BBF
:1030180009D1FB681868FB681B69DBB21A46796935
:1030280002F0E4F808E0FB681868FB681B69DBB28B
:103038001A46796901F092FE002318461837BD46F2
:1030480080BD80B586B000AFF8607A603B600B4603
:10305800FB72FB7A03F00F021346DB0013449B005C
:103068003833FA68134404337B617B697A681A61E0
:103078007B693A689A617B6900221A627B6901223E
:103088005A70FB7A03F00F03DAB27B691A70FB6897
:103098001B69012B02D17A687B695A61FB7A03F0BC
:1030A8000F03002B09D1FB681868FB681B69DBB2AA
:1030B8001A46796902F09AF808E0FB681868FB6814
:1030C8001B69DBB21A46796901F048FE00231846ED
:1030D8001837BD4680BD80B584B000AF78600B4618
:1030E800FB70FB7803F00F027B685B689A4201D99A
:1030F800012350E097F90330002B0FDAFB7803F037
:103108000F021346DB0013449B0038337A681344DC
:103118000433FB60FB6801225A700DE0FA7813460D
:10312800DB0013449B0003F51E737A6813440433D1
:10313800FB60FB6800225A70FB6801229A70FB78DA
:1031480003F00F03DAB2FB681A707B6893F8BC349B
:10315800012B01D102231EE07B68012283F8BC24E5
:103168007B681B68F968184602F0D8FAFB7803F008
:103178000F03002B0AD17B6818687B681B69D9B2DA
:103188007B6803F2C4431A4602F0C8FC7B6800223D
:1031980083F8BC24002318461037BD4680BD80B58F
:1031A80084B000AF78600B46FB70FB7803F00F0229
:1031B8007B685B689A4201D9012342E097F90330A2
:1031C800002B0FDAFB7803F00F021346DB001344E1
:1031D8009B0038337A6813440433FB60FB68012290
:1031E8005A700FE0FB7803F00F021346DB0013441C
:1031F8009B0003F51E737A6813440433FB60FB6875
:1032080000225A70FB6800229A70FB7803F00F03C3
:10321800DAB2FB681A707B6893F8BC34012B01D1D1
:1032280002230EE07B68012283F8BC247B681B68BC
:10323800F968184602F0E0FA7B68002283F8BC249B
:10324800002318461037BD4680BD80B584B000AF56
:1032580078600B46FB7097F90330002B0CDAFB788B
:1032680003F00F021346DB0013449B0038337A68DF
:1032780013440433FB600CE0FB7803F00F021346A1
:10328800DB0013449B0003F51E737A681344043370
:10329800FB607B681B68F968184602F0FFF8034674
:1032A800FB72FB7A18461037BD4680BD80B58AB0E0
:1032B80002AF786039607B681B687B617B693B6122
:1032C8003A681346DB0013449B0038337A6813448A
:1032D8000433FB60FB681A6AFB689B699A4201D950
:1032E80001236CE0FB689A69FB681B6AD31AFB61CF
:1032F800FB68DB68FA699A4202D9FB68DB68FB6104
:10330800FB6903339B08BB612BE0FB689A69FB6888
:103318001B6AD31AFB61FB68DB68FA699A4202D917
:10332800FB68DB68FB61FB6903339B08BB61FB68D7
:1033380019693B68DAB2FB6998B27B681B69DBB232
:1033480000930346786902F053F9FB681A69FB6930
:103358001A44FB681A61FB681A6AFB691A44FB681D
:103368001A623B685A013B69134403F510639B6971
:103378009BB2BA699A4209D8FB681A6AFB689B69CA
:103388009A4203D2FB689B69002BBED1FB689A69FD
:10339800FB681B6A9A4211D83B6803F00F030122AD
:1033A80002FA03F3BB603B6903F500635A6BBB6821
:1033B800DB43396901F5006113404B63002318466C
:1033C8002037BD4680BD000080B588B000AF78606A
:1033D80039607B681B68FB61FB69BB61FB693C3337
:1033E80004331B687B613B685A01BB69134403F5CE
:1033F80030639B683B617B681B69012B7BD13B6910
:1034080003F00803002B15D07B69614A934240F210
:10341800B9803B6903F40043002B00F0B3803B689C
:103428005A01BB69134403F530631A464FF400434D
:103438009360A7E03B6903F02003002B09D03B68A9
:103448005A01BB69134403F530631A46202393607D
:1034580098E03B6903F02803002B40F093807B69D8
:103468004B4A93420FD93B6903F40043002B0AD01F
:103478003B685A01BB69134403F530631A464FF49D
:10348800004393607EE03A681346DB0013449B00D8
:1034980003F51E737A6813440433FB60FB68DA692A
:1034A8003B685901BB690B4403F530631B69C3F3DF
:1034B8001203D21AFB681A623B68002B14D1FB680E
:1034C8009B69002B09D17B6818687B6803F2C443A9
:1034D8001A46012102F022FB06E0FB681A69FB6824
:1034E8001B6A1A44FB681A613B68DBB219467868A4
:1034F80004F080FA46E07B69264A934224D13B696E
:1035080003F40043002B0AD03B685A01BB691344FB
:1035180003F530631A464FF40043936032E03B6989
:1035280003F02003002B08D03B685A01BB69134401
:1035380003F530631A46202393603B68DBB21946D3
:10354800786804F057FA1DE03B68002B14D17968BD
:103558003A681346DB0013449B000B4403F52573BC
:103568001B68002B08D17B6818687B6803F2C4438A
:103578001A46002102F0D2FA3B68DBB21946786895
:1035880004F038FA002318462037BD4680BD00BF36
:103598000A30544F0A31544F80B586B000AF786076
:1035A80039607B681B687B617B693B617B693C3365
:1035B80004331B68FB603B685A013B69134403F5FD
:1035C80030639B68BB60FB68154A93420ED9BB68A1
:1035D80003F40043002B09D03B685A013B691344AC
:1035E80003F530631A464FF400439360786804F09B
:1035F800EFF9FB680A4A93420CD97B681B69012BD7
:1036080008D17B6818687B6803F2C4431A46012115
:1036180002F084FA002318461837BD4680BD00BF63
:103628000A30544F80B485B000AF78600B46FB7009
:1036380013463B807B681B685B6ABB60FB78002B8A
:1036480007D13B8819047B681B68BA680A439A62E9
:1036580028E07B681B689B6A1B0CBA681344BB6034
:103668000023FB730DE07B681A68FB7B40339B00EB
:1036780013445B681B0CBA681344BB60FB7B0133C3
:10368800FB73FA7BFB78013B9A42ECD33B88180426
:103698007B681968FB78013BBA68024340339B009A
:1036A8000B445A60002318461437BD465DF8047B66
:1036B800704780B483B000AF78600B467B807B682E
:1036C8001B687A885A62002318460C37BD465DF895
:1036D800047B704780B483B000AF78600B46FB7002
:1036E80000BF0C37BD465DF8047B704780B586B0D7
:1036F80000AF78607B68002B01D1012367E27B680B
:103708001B6803F00103002B75D0884B9B6803F0FE
:103718000C03042B0CD0854B9B6803F00C03082B7F
:1037280012D1824B5B6803F48003B3F5800F0BD191
:103738007E4B1B6803F40033002B5BD07B685B680F
:10374800002B57D1012342E27B685B68B3F5803FC9
:1037580006D1764B1B68754A43F4803313601DE02D
:103768007B685B68B3F5A02F0CD1704B1B686F4A60
:1037780043F4802313606D4B1B686C4A43F4803319
:1037880013600BE0694B1B68684A23F480331360AD
:10379800664B1B68654A23F4802313607B685B686B
:1037A800002B13D0FDF746FC386108E0FDF742FC1A
:1037B80002463B69D31A642B01D9032307E25B4B0A
:1037C8001B6803F40033002BF0D014E0FDF732FC43
:1037D800386108E0FDF72EFC02463B69D31A642BDA
:1037E80001D90323F3E1514B1B6803F40033002B89
:1037F800F0D100E000BF7B681B6803F00203002BD8
:1038080063D04A4B9B6803F00C03002B0BD0474B4B
:103818009B6803F00C03082B1CD1444B5B6803F432
:103828008003002B16D1414B1B6803F00203002BC9
:1038380005D07B68DB68012B01D00123C7E13B4B36
:103848001B6823F0F8027B681B69DB0037491343C8
:103858000B603AE07B68DB68002B20D0344B0122F8
:103868001A60FDF7E7FB386108E0FDF7E3FB024665
:103878003B69D31A022B01D90323A8E12B4B1B6800
:1038880003F00203002BF0D0284B1B6823F0F8024A
:103898007B681B69DB00254913430B6015E0244B4B
:1038A80000221A60FDF7C6FB386108E0FDF7C2FB8D
:1038B80002463B69D31A022B01D9032387E11B4B2C
:1038C8001B6803F00203002BF0D17B681B6803F030
:1038D8000803002B36D07B685B69002B16D0154B8C
:1038E80001221A60FDF7A6FB386108E0FDF7A2FB8C
:1038F80002463B69D31A022B01D9032367E10B4B1C
:103908005B6F03F00203002BF0D01BE0094B002291
:103918001A60FDF78FFB38610EE0FDF78BFB02465E
:103928003B69D31A022B07D9032350E10038024020
:1039380000004742800E4742884B5B6F03F002034A
:10394800002BEAD17B681B6803F00403002B00F00E
:1039580097800023FB75814B1B6C03F08053002B71
:103968000FD10023BB607D4B1B6C7C4A43F0805316
:1039780013647A4B1B6C03F08053BB60BB68012354
:10398800FB75774B1B6803F48073002B18D1744BBD
:103998001B68734A43F480731360FDF74BFB38616F
:1039A80008E0FDF747FB02463B69D31A022B01D911
:1039B80003230CE16A4B1B6803F48073002BF0D0DF
:1039C8007B689B68012B06D1644B1B6F634A43F0ED
:1039D800010313671CE07B689B68052B0CD15F4BC8
:1039E8001B6F5E4A43F0040313675C4B1B6F5B4A13
:1039F80043F0010313670BE0584B1B6F574A23F042
:103A080001031367554B1B6F544A23F004031367D4
:103A18007B689B68002B15D0FDF70CFB38610AE02A
:103A2800FDF708FB02463B69D31A41F288329342FC
:103A380001D90323CBE0494B1B6F03F00203002B92
:103A4800EED014E0FDF7F6FA38610AE0FDF7F2FA75
:103A580002463B69D31A41F28832934201D90323C3
:103A6800B5E03E4B1B6F03F00203002BEED1FB7D4C
:103A7800012B05D1394B1B6C384A23F08053136452
:103A88007B689B69002B00F0A180344B9B6803F096
:103A98000C03082B5CD07B689B69022B41D1314B0E
:103AA80000221A60FDF7C6FA386108E0FDF7C2FA8D
:103AB80002463B69D31A022B01D9032387E0274B1F
:103AC8001B6803F00073002BF0D17B68DA697B6810
:103AD8001B6A1A437B685B6A9B011A437B689B6A73
:103AE8005B08013B1B041A437B68DB6A1B061B4906
:103AF80013434B601B4B01221A60FDF79BFA386198
:103B080008E0FDF797FA02463B69D31A022B01D960
:103B180003235CE0114B1B6803F00073002BF0D00B
:103B280054E0104B00221A60FDF784FA386108E06F
:103B3800FDF780FA02463B69D31A022B01D9032309
:103B480045E0064B1B6803F00073002BF0D13DE005
:103B58007B689B69012B07D1012338E000380240BC
:103B680000700040600047421B4B5B68FB607B684D
:103B78009B69012B28D0FB6803F480027B68DB6912
:103B88009A4221D1FB6803F03F027B681B6A9A4284
:103B98001AD1FA6847F6C07313407A68526A9201DC
:103BA800934211D1FB6803F440327B689B6A5B083F
:103BB800013B1B049A4207D1FB6803F070627B68E3
:103BC800DB6A1B069A4201D0012300E00023184655
:103BD8001837BD4680BD00BF0038024080B584B0AC
:103BE80000AF786039607B68002B01D10123CCE0FD
:103BF800684B1B6803F007033A689A420CD9654B77
:103C08003A68D2B21A70634B1B6803F007033A682C
:103C18009A4201D00123B8E07B681B6803F00203D5
:103C2800002B20D07B681B6803F00403002B05D011
:103C3800594B9B68584A43F4E05393607B681B6870
:103C480003F00803002B05D0534B9B68524A43F4FA
:103C580060439360504B9B6823F0F0027B689B683D
:103C68004D4913438B607B681B6803F00103002BED
:103C780044D07B685B68012B07D1474B1B6803F472
:103C88000033002B19D101237FE07B685B68022B8E
:103C980003D07B685B68032B07D13F4B1B6803F09D
:103CA8000073002B09D101236FE03B4B1B6803F025
:103CB8000203002B01D1012367E0374B9B6823F0F7
:103CC80003027B685B68344913438B60FDF7B2F9E4
:103CD800F8600AE0FDF7AEF90246FB68D31A41F234
:103CE8008832934201D903234FE02B4B9B6803F0A2
:103CF8000C027B685B689B009A42EBD1254B1B68E2
:103D080003F007033A689A420CD2224B3A68D2B2BF
:103D18001A70204B1B6803F007033A689A4201D0D7
:103D2800012332E07B681B6803F00403002B08D0F2
:103D3800194B9B6823F4E0527B68DB6816491343F0
:103D48008B607B681B6803F00803002B09D0124BBB
:103D58009B6823F460427B681B69DB000E491343B0
:103D68008B6000F021F802460B4B9B681B0903F09F
:103D78000F030A49CB5C22FA03F3094A1360094B83
:103D88001B681846FDF712F9002318461037BD4680
:103D980080BD00BF003C024000380240CC7F0008D4
:103DA80000000020040000202DE9B04F94B000AFBF
:103DB80000237B640023FB6400233B640023BB6473
:103DC800794B9B6803F00C03082B0DD0082B00F2ED
:103DD800E180002B02D0042B03D0DBE0734BBB64E3
:103DE800DBE0734BBB64D8E06F4B5B6803F03F03C9
:103DF8007B646D4B5B6803F48003002B63D06A4BD4
:103E08005B689B090022BB63FA63BB6BC3F30803BF
:103E18003B6300237B63D7E90C4522462B464FF0D2
:103E280000004FF00001590141EAD26150010246F9
:103E38000B462146511A3961294663EB01037B6120
:103E48004FF000024FF00003D7E904AB59468B014D
:103E5800514643EA916351468A015146B2EB010843
:103E6800594663EB01094FF000024FF000034FEA97
:103E7800C90343EA58734FEAC80290469946234655
:103E880018EB0303BB602B4649EB0303FB604FF0C1
:103E980000024FF00003D7E9024529464B022146AC
:103EA80043EAD15321464A02104619467B6C002248
:103EB800BB62FA62D7E90A23FCF78AF902460B4685
:103EC8001346FB6458E0384B5B689B090022184690
:103ED8001146C0F308033B6200237B62D7E90889D7
:103EE80042464B464FF000004FF00001590141EAAD
:103EF800D261500102460B464146B2EB010A4946DF
:103F080063EB010B4FF000024FF000034FEA8B13F5
:103F180043EA9A634FEA8A12B2EB0A0463EB0B0591
:103F28004FF000024FF00003EB0043EA5473E20045
:103F380014461D464346E3183B604B4645EB0303D6
:103F48007B604FF000024FF00003D7E90045294697
:103F58008B02214643EA915321468A0210461946AC
:103F68007B6C0022BB61FA61D7E90623FCF730F9C4
:103F780002460B461346FB640B4B5B681B0C03F0B5
:103F8800030301335B003B64FA6C3B6CB2FBF3F355
:103F9800BB6402E0054BBB6400BFBB6C18465037DE
:103FA800BD46BDE8B08F00BF003802400024F400D1
:103FB80000127A0080B400AF034B1B681846BD4658
:103FC8005DF8047B704700BF0000002080B500AF9B
:103FD800FFF7F0FF0246054B9B689B0A03F00703B7
:103FE8000349CB5C22FA03F3184680BD003802402F
:103FF800DC7F000880B586B000AF786000237B6165
:1040080000233B617B681B6803F00103002B05D18B
:104018007B681B6803F00403002B38D0684B002230
:104028001A60FDF707F8786108E0FDF703F8024623
:104038007B69D31A022B01D90323BDE0614B1B68AE
:1040480003F00063002BF0D17B685A687B689B689B
:104058009B011A437B68DB681B075A491343C1F865
:104068008430574B01221A60FCF7E4FF786108E0BE
:10407800FCF7E0FF02467B69D31A022B01D9032320
:104088009AE0504B1B6803F00063002BF0D07B686C
:104098001B6803F00203002B00F083800023FB6001
:1040A800484B1B6C474A43F080531364454B1B6CC9
:1040B80003F08053FB60FB68434B1B68424A43F4A0
:1040C80080731360FCF7B6FF786108E0FCF7B2FF75
:1040D80002467B69D31A022B01D903236CE03A4BC1
:1040E8001B6803F48073002BF0D0364B1B6F03F46E
:1040F80040733B613B69002B2FD07B681B6903F43D
:1041080040733A699A4228D02E4B1B6F23F44073B0
:104118003B612E4B01221A602C4B00221A60294A5F
:104128003B691367274B1B6F03F00103012B14D165
:10413800FCF780FF78610AE0FCF77CFF02467B69A8
:10414800D31A41F28832934201D9032334E01D4B3C
:104158001B6F03F00203002BEED07B681B6903F48E
:104168004073B3F5407F0DD1164B9B6823F4F812CA
:104178007B681B6923F0704323F440731149134390
:104188008B6005E00F4B9B680E4A23F4F81393608D
:104198000C4B1A6F7B681B69C3F30B030949134364
:1041A8000B677B681B6803F00803002B03D07B6850
:1041B8001A7D074B1A60002318461837BD4680BD84
:1041C800680047420038024000700040400E4742F5
:1041D800E011474280B487B000AF786000237B616C
:1041E80000233B610023FB600023BB607B68012B3D
:1041F80040D1244B9B6803F40003FB60FB68002B51
:1042080005D0FB68012B31D11F4B7B6131E01D4B81
:104218005B6803F48003B3F5800F09D1194BD3F819
:10422800843003F03F03194AB2FBF3F33B6108E023
:10423800144BD3F8843003F03F03154AB2FBF3F371
:104248003B61104BD3F884309B09C3F308023B69E8
:1042580002FB03F3BB600B4BD3F884301B0F03F056
:104268000703BA68B2FBF3F37B6102E000237B61CA
:1042780000BF00BF7B6918461C37BD465DF8047B4C
:10428800704700BF003802400080BB0000127A006F
:104298000024F40080B582B000AF78607B68002B02
:1042A80001D101237BE07B685B6A002B08D17B6826
:1042B8005B68B3F5827F09D07B680022DA6105E08C
:1042C8007B6800221A617B6800225A617B680022A1
:1042D8009A627B6893F85130DBB2002B06D17B6879
:1042E800002283F850207868FCF786FD7B6802225C
:1042F80083F851207B681B681A687B681B6822F06A
:1043080040021A607B685B6803F482727B689B6872
:1043180003F404431A437B68DB6803F400631A431D
:104328007B681B6903F002031A437B685B6903F02F
:1043380001031A437B689B6903F400731A437B6883
:10434800DB6903F038031A437B681B6A03F08003B8
:1043580042EA03017B689B6A03F400527B681B688E
:104368000A431A607B689B691B0C03F004017B6895
:104378005B6A03F010027B681B680A435A607B681B
:104388001B68DA697B681B6822F40062DA617B6863
:1043980000225A657B68012283F8512000231846C1
:1043A8000837BD4680BD84B080B584B000AF786062
:1043B80007F11C0080E80E003B6B012B22D17B68C3
:1043C8009B6B23F480327B689A637B68DB6823F4F9
:1043D800840323F040037A68D3607B68DB6823F4A6
:1043E80040127B68DA60FB6C012B05D17B68DB68C7
:1043F80043F480127B68DA60786801F0EDFB0346CD
:10440800FB731AE07B68DB6843F040027B68DA6084
:10441800786801F0E1FB0346FB733B6C002B06D187
:104428007B689B6B43F480327B689A6305E07B680A
:104438009B6B23F480327B689A63BB6A012B0BD198
:104448007B689B6843F006027B689A607B689B6880
:1044580043F020027B689A60FB7B18461037BD4604
:10446800BDE8804004B0704780B487B000AFF86002
:10447800B9601346FB71FB79022B65D1BB68414AD1
:10448800934206D9BB68404A934202D20F237B610C
:1044980062E0BB683C4A934206D3BB683B4A9342FE
:1044A80002D20E237B6157E0BB68384A934206D399
:1044B800BB68374A934202D20D237B614CE0BB684C
:1044C800334A934206D3BB68324A934202D80C233C
:1044D8007B6141E0BB682F4A934206D9BB682E4AEC
:1044E800934202D80B237B6136E0BB682A4A934289
:1044F80006D9BB68294A934202D80A237B612BE07C
:10450800BB68264A934206D9BB68254A934202D221
:1045180009237B6120E0BB68214A934206D3BB682C
:10452800204A934202D808237B6115E0BB681D4AE4
:10453800934206D9BB681C4A934202D207237B6187
:104548000AE006237B6107E0FB79002B02D10923EF
:104558007B6101E009237B61FB68DB6823F470520F
:10456800FB68DA60FB68DA687B699B0203F47053C6
:104578001A43FB68DA60002318461C37BD465DF80D
:10458800047B7047BFACD800C0E1E4000024F4000D
:10459800807306019F491A01FF2C31013FA44C0189
:1045A80000366E011FABA6010048E80180B483B055
:1045B80000AF78607B689B6843F001027B689A6073
:1045C800002318460C37BD465DF8047B704780B45D
:1045D80083B000AF78607B689B6823F001027B683A
:1045E8009A60002318460C37BD465DF8047B704777
:1045F80080B584B000AF78600B46FB700023FB6089
:104608007B68DB6823F0C0427B68DA60FB78012BAB
:1046180015D17B68DB6843F000527B68DA600120C3
:10462800FCF714FDFB680133FB60786801F045FA7C
:104638000346012B1ED0FB68312BF0D91AE0FB781A
:10464800002B15D17B68DB6843F080427B68DA6019
:104658000120FCF7FBFCFB680133FB60786801F084
:104668002CFA0346002B05D0FB68312BF0D901E06A
:10467800012305E0FB68322B01D1012300E0002370
:1046880018461037BD4680BD84B080B586B000AFEF
:10469800786007F1240080E80E000023FB757B6832
:1046A800FB6000233B6109E07A683B6940339B006B
:1046B800134400225A603B6901333B613B690E2B6E
:1046C800F2D9FB6C002B1CD1FB6803F500635B6817
:1046D800FA6802F5006243F0020353607B689B6B43
:1046E80043F400127B689A637B689B6B23F4002277
:1046F8007B689A637B689B6B23F480227B689A6350
:104708000BE07B689B6B23F400127B689A637B68E1
:104718009B6B43F400227B689A63FB6803F5606334
:104728001A4600231360FB6803F500631946FB680B
:1047380003F500631A460B681360BB6B012B0CD1A1
:10474800FB6A002B04D10021786800F065F908E0C5
:104758000121786800F060F903E00321786800F02F
:104768005BF91021786800F0F3F80346002B01D0BC
:104778000123FB75786800F01FF90346002B01D070
:104788000123FB75FB6803F500631A4600231361D8
:10479800FB6803F500631A4600235361FB6803F5C1
:1047A80000631A460023D36100233B6143E03B6961
:1047B8005A01FB68134403F510631B6803F00043B8
:1047C800B3F1004F18D13B69002B0AD13B695A015C
:1047D800FB68134403F510631A464FF00063136037
:1047E80013E03B695A01FB68134403F510631A464A
:1047F8004FF09043136008E03B695A01FB6813448B
:1048080003F510631A46002313603B695A01FB68DD
:10481800134403F510631A46002313613B695A01D8
:10482800FB68134403F510631A464FF67F33936011
:104838003B6901333B617B6A3A699A42B7D30023EB
:104848003B6143E03B695A01FB68134403F530635D
:104858001B6803F00043B3F1004F18D13B69002BEC
:104868000AD13B695A01FB68134403F530631A46C1
:104878004FF00063136013E03B695A01FB6813446F
:1048880003F530631A464FF09043136008E03B6924
:104898005A01FB68134403F530631A46002313607A
:1048A8003B695A01FB68134403F530631A46002339
:1048B80013613B695A01FB68134403F530631A46D8
:1048C8004FF67F3393603B6901333B617B6A3A69FA
:1048D8009A42B7D3FB6803F500631B69FA6802F5CF
:1048E800006223F4807313617B6800229A617B68FD
:1048F8006FF080425A613B6B002B05D17B689B6946
:1049080043F010027B689A617B689A690F4B1343E6
:104918007A689361FB6B002B05D07B689B6943F039
:1049280008027B689A61FB6C012B07D17B689B6945
:1049380043F0804343F004037A689361FB7D184693
:104948001837BD46BDE8804004B0704700383C8049
:1049580080B485B000AF786039600023FB60FB68E5
:104968000133FB60FB68134A934201D903231BE020
:104978007B681B69002BF2DA0023FB603B689B0114
:1049880043F020027B681A61FB680133FB60FB6817
:10499800084A934201D9032306E07B681B6903F0A8
:1049A8002003202BF0D0002318461437BD465DF8AD
:1049B800047B7047400D030080B485B000AF786079
:1049C8000023FB60FB680133FB60FB68114A9342DC
:1049D80001D9032318E07B681B69002BF2DA002356
:1049E800FB607B6810221A61FB680133FB60FB687F
:1049F800084A934201D9032306E07B681B6903F048
:104A08001003102BF0D0002318461437BD465DF86C
:104A1800047B7047400D030080B485B000AF786018
:104A28000B46FB707B68FB60FB6803F500631A6844
:104A3800FB78F96801F5006113430B600023184601
:104A48001437BD465DF8047B704780B487B000AF6B
:104A580078607B683B613B6903F500639B6803F002
:104A68000603FB60FB68002B02D10023FB750AE0FC
:104A7800FB68022B02D0FB68062B02D10223FB75D0
:104A880001E00F23FB75FB7D18461C37BD465DF81A
:104A9800047B704780B485B000AF786039607B686C
:104AA800FB603B681B78BB603B685B78012B3AD1A5
:104AB800FB6803F50063DA693B681B7803F00F03B2
:104AC800012101FA03F39BB2F96801F50061134370
:104AD800CB61BB685A01FB68134403F510631B687C
:104AE80003F40043002B55D1BB685A01FB681344FB
:104AF80003F510631A683B68DB68C3F30A013B6877
:104B08001B799B041943BB689B050B431343BA6885
:104B18005101FA680A4402F5106243F0805343F4E5
:104B28000043136036E0FB6803F50063DA693B680D
:104B38001B7803F00F03012101FA03F31B04F96842
:104B480001F500611343CB61BB685A01FB6813444C
:104B580003F530631B6803F40043002B1AD1BB68CC
:104B68005A01FB68134403F530631A683B68DB6835
:104B7800C3F30A013B681B799B040B431343BA68D0
:104B88005101FA680A4402F5306243F0805343F455
:104B980000431360002318461437BD465DF8047BB4
:104BA8007047000080B485B000AF786039607B68DA
:104BB800FB603B681B78BB603B685B78012B61D16D
:104BC800BB685A01FB68134403F510631B6803F0C4
:104BD8000043B3F1004F1FD1BB685A01FB6813446F
:104BE80003F510631B68BA685101FA680A4402F5B4
:104BF800106243F000631360BB685A01FB681344FA
:104C080003F510631B68BA685101FA680A4402F593
:104C1800106243F080431360FB6803F50063DA6BAE
:104C28003B681B7803F00F03012101FA03F39BB2E1
:104C3800DB43F96801F500611340CB63FB6803F5BA
:104C48000063DA693B681B7803F00F03012101FA5E
:104C580003F39BB2DB43F96801F500611340CB61B4
:104C6800BB685A01FB68134403F510631A68BB68F4
:104C78005901FB680B4403F510631946354B134083
:104C88000B6060E0BB685A01FB68134403F53063AE
:104C98001B6803F00043B3F1004F1FD1BB685A01F2
:104CA800FB68134403F530631B68BA685101FA685E
:104CB8000A4402F5306243F000631360BB685A018E
:104CC800FB68134403F530631B68BA685101FA683E
:104CD8000A4402F5306243F080431360FB6803F531
:104CE8000063DA6B3B681B7803F00F03012101FABC
:104CF80003F31B04DB43F96801F500611340CB6340
:104D0800FB6803F50063DA693B681B7803F00F035F
:104D1800012101FA03F31B04DB43F96801F5006183
:104D28001340CB61BB685A01FB68134403F5306339
:104D38001A68BB685901FB680B4403F530631946D0
:104D4800054B13400B60002318461437BD465DF829
:104D5800047B7047007833EC0078F3EF80B58AB0B5
:104D680002AFF860B9601346FB71FB68FB61BB6872
:104D78001B78BB61BB685B78012B40F05C81BB682A
:104D88009B69002B32D1BB695A01FB69134403F5B7
:104D980010631B69BA695101FA690A4402F5106285
:104DA80023F0FF5323F4C0131361BB695A01FB6955
:104DB800134403F510631B69BA695101FA690A447F
:104DC80002F5106243F400231361BB695A01FB69C1
:104DD800134403F510631B69BA695101FA690A445F
:104DE80002F51062DB0CDB04136174E0BB695A0145
:104DF800FB69134403F510631B69BA695101FA6929
:104E08000A4402F51062DB0CDB041361BB695A012A
:104E1800FB69134403F510631B69BA695101FA6908
:104E28000A4402F5106223F0FF5323F4C013136100
:104E3800BB695A01FB69134403F510631A69BB681F
:104E48009969BB68DB680B44591EBB68DB68B1FB1A
:104E5800F3F3D9049D4B0B40B9694801F969014442
:104E680001F5106113430B61BB695A01FB691344D7
:104E780003F510631A69BB689B69C3F31203B96928
:104E88004801F969014401F5106113430B61BB68DE
:104E98001B79012B1FD1BB695A01FB69134403F528
:104EA80010631B69BA695101FA690A4402F5106274
:104EB80023F0C0431361BB695A01FB69134403F52E
:104EC80010631B69BA695101FA690A4402F5106254
:104ED80043F000531361FB79012B4BD1BB685B692D
:104EE800002B09D0BB695A01FB69134403F5106311
:104EF8001A46BB685B695361BB681B79012B28D1D3
:104F0800FB6903F500639B6803F48073002B10D1E1
:104F1800BB695A01FB69134403F510631B68BA693E
:104F28005101FA690A4402F5106243F00053136014
:104F38000FE0BB695A01FB69134403F510631B6852
:104F4800BA695101FA690A4402F5106243F08053C4
:104F58001360BB695A01FB69134403F510631B68AE
:104F6800BA695101FA690A4402F5106243F0044330
:104F7800136033E1BB695A01FB69134403F51063FD
:104F88001B68BA695101FA690A4402F5106243F0D4
:104F980004431360BB681B79012B15D0BB689B6960
:104FA800002B00F01B81FB6903F500635A6BBB689B
:104FB8001B7803F00F03012101FA03F3F96901F5E6
:104FC800006113434B6309E1FB6903F500639B68C8
:104FD80003F48073002B10D1BB695A01FB69134499
:104FE80003F510631B68BA695101FA690A4402F5AE
:104FF800106243F0005313600FE0BB695A01FB696C
:10500800134403F510631B68BA695101FA690A442D
:1050180002F5106243F080531360BB681969BB68DE
:105028001A78BB689B6998B2FB7900930346F868C5
:1050380000F0DEFAD2E0BB695A01FB69134403F5BC
:1050480030631B69BA695101FA690A4402F5306292
:10505800DB0CDB041361BB695A01FB69134403F5DC
:1050680030631B69BA695101FA690A4402F5306272
:1050780023F0FF5323F4C0131361BB689B69002B13
:1050880026D1BB695A01FB69134403F530631A69D9
:10509800BB68DB68C3F31203B9694801F9690144C5
:1050A80001F5306113430B61BB695A01FB69134475
:1050B80003F530631B69BA695101FA690A4402F5BC
:1050C800306243F4002313613AE000BF0000F81F88
:1050D800BB689A69BB68DB6813445A1EBB68DB6807
:1050E800B2FBF3F3FB82BB68DB68FA8A03FB02F2CC
:1050F800BB68DA61BB695A01FB69134403F5306385
:105108001A69FB8AD904384B0B40B9694801F96917
:10511800014401F5306113430B61BB695A01FB6916
:10512800134403F530631A69BB68DB69C3F31203E0
:10513800B9694801F969014401F5306113430B610C
:10514800FB79012B0DD1BB681B69002B09D0BB680B
:105158001969BB695A01FB69134403F530630A46B0
:105168005A61BB681B79012B28D1FB6903F50063E1
:105178009B6803F48073002B10D1BB695A01FB694B
:10518800134403F530631B68BA695101FA690A448C
:1051980002F5306243F0005313600FE0BB695A0117
:1051A800FB69134403F530631B68BA695101FA6956
:1051B8000A4402F5306243F080531360BB695A0118
:1051C800FB69134403F530631B68BA695101FA6936
:1051D8000A4402F5306243F0044313600023184682
:1051E8002037BD4680BD00BF0000F81F80B487B0DF
:1051F80000AFF860B9601346FB71FB687B61BB6860
:105208001B783B61BB685B78012B40F0CE80BB68A4
:105218009B69002B32D13B695A017B69134403F522
:1052280010631B693A6951017A690A4402F51062F0
:1052380023F0FF5323F4C01313613B695A017B69C0
:10524800134403F510631B693A6951017A690A44EA
:1052580002F5106243F4002313613B695A017B692C
:10526800134403F510631B693A6951017A690A44CA
:1052780002F51062DB0CDB0413614EE03B695A0156
:105288007B69134403F510631B693A6951017A6914
:105298000A4402F51062DB0CDB0413613B695A0116
:1052A8007B69134403F510631B693A6951017A69F4
:1052B8000A4402F5106223F0FF5323F4C01313616C
:1052C800BB689A69BB68DB689A4203D9BB68DA682D
:1052D800BB689A613B695A017B69134403F5106303
:1052E8001B693A6951017A690A4402F5106243F46C
:1052F800002313613B695A017B69134403F510636A
:105308001A69BB689B69C3F3120339694801796953
:10531800014401F5106113430B61FB79012B1ED188
:10532800BB685B69002B09D03B695A017B69134450
:1053380003F510631A46BB685B6953613B695A0100
:105348007B69134403F510631B683A6951017A6954
:105358000A4402F5106243F00443136097E03B6986
:105368005A017B69134403F510631B683A695101BC
:105378007A690A4402F5106243F004431360BB687B
:105388009B69002B00F083807B6903F500635A6BEF
:10539800BB681B7803F00F03012101FA03F3796955
:1053A80001F5006113434B6371E03B695A017B6966
:1053B800134403F530631B693A6951017A690A4459
:1053C80002F53062DB0CDB0413613B695A017B692F
:1053D800134403F530631B693A6951017A690A4439
:1053E80002F5306223F0FF5323F4C0131361BB6846
:1053F8009B69002B03D0BB68DA68BB689A61BB68FD
:10540800DA68BB68DA613B695A017B69134403F5C2
:1054180030631B693A6951017A690A4402F53062BE
:1054280043F4002313613B695A017B69134403F574
:1054380030631A69BB68DB69C3F312033969480131
:105448007969014401F5306113430B61FB79012B44
:105458000DD1BB681B69002B09D0BB6819693B6972
:105468005A017B69134403F530630A465A613B6964
:105478005A017B69134403F530631B683A6951018B
:105488007A690A4402F5306243F00443136000234A
:1054980018461C37BD465DF8047B704780B487B05A
:1054A80000AF786039600023FB600023FB757B68E0
:1054B8003B613B685B78012B4AD13B681B785A01FA
:1054C8003B69134403F510631B6803F00043B3F111
:1054D800004F40F086803B681B785A013B691344B3
:1054E80003F510631B683A68127851013A690A4457
:1054F80002F5106243F0006313603B681B785A01A1
:105508003B69134403F510631B683A68127851012C
:105518003A690A4402F5106243F080431360FB685D
:105528000133FB60FB6842F21072934202D90123F7
:10553800FB7556E03B681B785A013B69134403F539
:1055480010631B6803F00043B3F1004FE7D048E055
:105558003B681B785A013B69134403F530631B68A9
:1055680003F00043B3F1004F3BD13B681B785A016D
:105578003B69134403F530631B683A68127851019C
:105588003A690A4402F5306243F0006313603B68ED
:105598001B785A013B69134403F530631B683A686A
:1055A800127851013A690A4402F5306243F08043A7
:1055B8001360FB680133FB60FB6842F21072934290
:1055C80002D90123FB750CE03B681B785A013B6943
:1055D800134403F530631B6803F00043B3F1004F35
:1055E800E7D0FB7D18461C37BD465DF8047B704745
:1055F80080B489B000AFF860B96011461A460B460E
:10560800FB711346BB80FB687B61BB68FB6197F845
:105618002830002B23D1BB8803339B083B61002330
:10562800BB6118E0FB791A037B69134403F58053C7
:105638001A46FB691B681360FB690133FB61FB6950
:105648000133FB61FB690133FB61FB690133FB61DA
:10565800BB690133BB61BA693B699A42E2D3002353
:1056680018462437BD465DF8047B704780B48BB07C
:1056780000AFF860B9601346FB80FB68BB61BB688C
:105688007B62FB889B089BB27B61FB8803F003036A
:10569800FB8300233B6214E0BB6903F580531A685F
:1056A8007B6A1A607B6A01337B627B6A01337B62A7
:1056B8007B6A01337B627B6A01337B623B6A01331D
:1056C8003B623A6A7B699A42E6D3FB8B002B1ED079
:1056D80000233B62BB6903F580531A4607F11003A8
:1056E80012681A603A693B6ADBB2DB0022FA03F3FC
:1056F800DAB27B6A1A703B6A01333B627B6A013318
:105708007B62FB8B013BFB83FB8B002BEAD17B6A23
:1057180018462C37BD465DF8047B704780B485B0C9
:1057280000AF786039607B68FB603B681B78BB60C2
:105738003B685B78012B2CD1BB685A01FB6813448A
:1057480003F510631B68002B12DBBB68002B0FD01E
:10575800BB685A01FB68134403F510631B68BA68F9
:105768005101FA680A4402F5106223F0804313607D
:10577800BB685A01FB68134403F510631B68BA68D9
:105788005101FA680A4402F5106243F400131360E9
:105798002BE0BB685A01FB68134403F530631B68B0
:1057A800002B12DBBB68002B0FD0BB685A01FB68CB
:1057B800134403F530631B68BA685101FA680A4458
:1057C80002F5306223F080431360BB685A01FB681E
:1057D800134403F530631B68BA685101FA680A4438
:1057E80002F5306243F4001313600023184614379F
:1057F800BD465DF8047B704780B485B000AF786023
:1058080039607B68FB603B681B78BB603B685B78F2
:10581800012B28D1BB685A01FB68134403F51063B8
:105828001B68BA685101FA680A4402F5106223F449
:10583800001313603B681B79032B03D03B681B796B
:10584800022B38D1BB685A01FB68134403F5106377
:105858001B68BA685101FA680A4402F5106243F0FD
:105868008053136027E0BB685A01FB68134403F5B3
:1058780030631B68BA685101FA680A4402F530625D
:1058880023F4001313603B681B79032B03D03B6898
:105898001B79022B0FD1BB685A01FB68134403F52F
:1058A80030631B68BA685101FA680A4402F530622D
:1058B80043F080531360002318461437BD465DF843
:1058C800047B704780B485B000AF78600B46FB70EE
:1058D8007B68FB60FB6803F500631B68FA6802F5E8
:1058E800006223F4FE631360FB6803F500631A6823
:1058F800FB781B0103F4FE63F96801F500611343AB
:105908000B60002318461437BD465DF8047B7047CA
:1059180080B485B000AF78607B68FB60FB6803F5F6
:1059280060631B68FA6802F5606223F00303136082
:10593800FB6803F500635B68FA6802F5006223F010
:1059480002035360002318461437BD465DF8047BF4
:10595800704780B485B000AF78607B68FB60FB68F7
:1059680003F560631B68FA6802F5606223F00303BD
:105978001360FB6803F500635B68FA6802F5006270
:1059880043F002035360002318461437BD465DF800
:10599800047B704780B485B000AF78607B685B6932
:1059A800FB607B689B69FA681340FB60FB681846DC
:1059B8001437BD465DF8047B704780B485B000AFEE
:1059C80078607B68FB60FB6803F500639B69BB60DC
:1059D800FB6803F50063DB69BA681340BB60BB680A
:1059E8001B0C18461437BD465DF8047B704780B41D
:1059F80085B000AF78607B68FB60FB6803F50063E7
:105A08009B69BB60FB6803F50063DB69BA681340F8
:105A1800BB60BB689BB218461437BD465DF8047B73
:105A2800704780B485B000AF78600B46FB707B6828
:105A3800FB60FB785A01FB68134403F530639B68ED
:105A4800BB60FB6803F500635B69BA681340BB6021
:105A5800BB6818461437BD465DF8047B704780B4B0
:105A680087B000AF78600B46FB707B687B617B6911
:105A780003F500631B693B617B6903F500635B6B9E
:105A8800FB60FB7803F00F03FA6822FA03F3DB01EB
:105A9800DBB23A6913433B61FB785A017B691344D3
:105AA80003F510639B683A691340BB60BB681846EE
:105AB8001C37BD465DF8047B704780B483B000AFE7
:105AC80078607B685B6903F0010318460C37BD46B4
